:100000000C94B4010C94D1010C94D1010C94D10145
:100010000C94D1010C94D1010C94D1010C94D10118
:100020000C94D1010C94D1010C94D1010C94D10108
:100030000C94D1010C94D1010C94D1010C94D101F8
:100040000C94D1010C94D1010C94D1010C94D101E8
:100050000C94D1010C94D1010C94D1010C94D101D8
:100060000C94D1010C94D1010C94D1010C94D101C8
:10007000000000000000000000065F5F06000000B6
:100080000007070007070000147F7F147F7F14001C
:10009000242E6B6B3A120000466630180C66620024
:1000A000307A4F5D377A48000407030000000000F3
:1000B000001C3E63410000000041633E1C00000044
:1000C000082A3E1C1C3E2A0808083E3E080800007C
:1000D00000A0E06000000000080808080808000010
:1000E00000006060000000006030180C0603010092
:1000F0003E7F594D7F3E000042427F7F40400000DE
:10010000627359496F660000226349497F360000D7
:10011000181C16137F7F1000276745457D390000A6
:100120003C7E4B4979300000036371190F070000D2
:10013000367F49497F360000064F49693F1E00005F
:1001400000006C6C0000000000A0EC6C00000000DF
:10015000081C366341000000141414141414000029
:10016000004163361C080000020351590F060000CD
:100170003E7F415D5D1F1E007C7E13137E7C000070
:10018000417F7F49497F36001C3E63414163220025
:10019000417F7F41637F1C00417F7F495D41630058
:1001A000417F7F491D0103001C3E63415173720072
:1001B0007F7F08087F7F000000417F7F41000000B3
:1001C000307040417F3F0100417F7F081C77630012
:1001D000417F7F41406070007F7F060C067F7F007B
:1001E0007F7F060C187F7F001C3E6341633E1C002E
:1001F000417F7F49090F06001E3F21717F5E00008D
:10020000417F7F19396F460026674D597B320000C8
:1002100003417F7F410300007F7F40407F7F0000DC
:100220001F3F60603F1F00007F7F3018307F7F00DE
:1002300063771C081C776300074F78784F0700002E
:100240006773594D47637100007F7F414100000093
:100250000103060C183060000041417F7F00000060
:10026000080C0603060C0800808080808080808057
:100270000000030704000000207454543C78400040
:10028000413F7F44447C3800387C44446C28000063
:10029000307848493F7F4000387C54545C18000057
:1002A000487E7F490302000098BCA4A4F87C0400A7
:1002B000417F7F08047C780000447D7D4000000081
:1002C00040C484FD7D000000417F7F10386C4400F5
:1002D00000417F7F400000007C7C0C180C7C780083
:1002E0007C7C04047C780000387C44447C3800002A
:1002F00084FCF8A4243C1800183C24A4F8FC8400D6
:10030000447C78441C180000485C54547424000059
:1003100000043E7F442400003C7C40403C7C400084
:100320001C3C60603C1C00003C7C6030607C3C00FD
:10033000446C3810386C44009CBCA0A0FC7C0000CD
:100340004C64745C4C64000008083E774141000036
:1003500000000077770000004141773E0808000068
:10036000020301030203010011241FBECFEFD4E0FA
:10037000DEBFCDBF11E0A0E0B1E0E8E9F6E102C0E8
:1003800005900D92AA3EB107D9F721E0AAEEB1E09F
:1003900001C01D92A43FB207E1F70E947A060C94B7
:1003A0004A0B0C940000CF93C82F0E94D20683E022
:1003B0000E94E1068C2F0E94E10680E00E94E10687
:1003C000C82F0E94D6068C2F90E0CF910895CF932E
:1003D000DF93D82FC62F0E94D20682E00E94E1064A
:1003E0008D2F0E94E1068C2F0E94E1060E94D60606
:1003F000DF91CF9108950E94D20680EC0E94E10621
:100400000E94D6060895CF93C82F0E94D2068C2F43
:1004100081680E94E1060E94D606CF9108950E944D
:10042000FB0189EF90E00197F1F700C000000E9406
:10043000D20663E88AE20E94E70160EB89E20E944B
:10044000E70165E088E20E94E7018FE00E94D301A6
:10045000682F6F718FE00E94E7010E94D606089511
:100460000F931F93CF93DF938C01FC016081718107
:1004700076956795769567957695679581E30E9461
:10048000E701F80160816295660F607E82E30E9459
:10049000E701F801628185E30E94E701C0E0D0E056
:1004A00009C0F801EC0FFD1F63818C2F8A5C0E944C
:1004B000E7012196F801828190E0C817D9078CF3F3
:1004C00081E00E940302DF91CF911F910F91089567
:1004D00028E8FC012787208B0895CF93DF93EC0158
:1004E0000E9468021D821C821F821E8284E088870F
:1004F000198682E08A871B861D861C861E86198ABD
:10050000DF91CF910895FC018785680F711D87FDEC
:100510007A9524E6269FC001279F900D11249923E8
:1005200014F481589F4F880F892F881F990B0895C5
:10053000FC018089680F711D87FD7A9524E6269F4E
:10054000C001279F900D1124992314F481589F4FC7
:10055000880F892F881F990B0895FC018081918154
:10056000CD9754F08085823019F081E0838701C0F7
:10057000138682E08087089580819181843C9F4F1B
:1005800054F48085833019F081E0838701C013869D
:1005900083E08087089582819381CD9754F0808590
:1005A000813019F081E0838701C0138681E0808764
:1005B000089582819381843C9F4F4CF480858823E9
:1005C00019F081E0838701C0138610860895808525
:1005D000843019F081E0838701C0138684E080872E
:1005E0000895CF93DF93EC018A85282F082E000C05
:1005F000330B3F938F9388E291E09F938F930E94F8
:10060000650889851F928F938BE391E09F938F9369
:100610000E94650888851F928F9388E491E09F93DC
:100620008F930E946508888199819F938F9381E6BB
:1006300091E09F938F930E9465088A819B819F938D
:100640008F9385E791E09F938F930E9465088C813B
:100650009D819F938F9389E891E09F938F930E9450
:1006600065088E819F819F938F938BE991E09F9383
:100670008F930E9465088AE090E00E947B088DB706
:100680009EB74C960FB6F8949EBF0FBE8DBFDF91FC
:10069000CF910895FC01808191810895FC018281B0
:1006A0009381089584E088BB87B38B7F87BB10BE9E
:1006B000B29B02C080E0089581E0089540E050E1DF
:1006C00060E070E08EEA0E94100740E050E160E0D8
:1006D00070E081EA0E94100740E050E160E070E0C5
:1006E0008AED0E94100740E050E160E070E082E196
:1006F0000E94100740E050E160E070E088EC0E944A
:10070000100740E050E160E070E088EA0E941007C6
:1007100040E050E160E070E08FE30E94100740E0AD
:1007200050E160E070E085ED0E94100740E050E18C
:1007300060E070E080E80E94100740E050E160E077
:1007400070E081E80E94100740E050E160E070E056
:1007500080E50E94100740E050E160E070E089ED24
:100760000E94100740E050E160E070E081E20E94EA
:10077000100740E050E160E070E080E20E94100766
:1007800040E050E160E070E082E00E94100740E04D
:1007900050E160E070E08BED0E94100740E050E116
:1007A00060E070E080E30E94100740E050E160E00C
:1007B00070E08DEA0E94100740E050E160E070E0D8
:1007C00080E00E94100740E050E160E070E084EAC1
:1007D0000E94100740E050E160E070E086EA0E946D
:1007E000100740E050E160E070E08FEA0E941007DF
:1007F000089540E050E160E070E080550E941007ED
:100800000895CF93C82F40E050E160E070E08F7012
:100810000E9410078C2F859585958595859540E0DC
:1008200050E160E070E080610E941007CF91089570
:10083000CF93C62F0E94F9038C2F0E940104CF9101
:100840000895CF93DF9360E00E941804C0E0D0E0E9
:1008500008C040E052E160E070E080E00E941007D4
:100860002196C038D105ACF3DF91CF910895CF9395
:10087000DF9360E080E00E941804C0E0D0E007C091
:100880008C2F0E9421048C2F0E94F9032196C830DE
:10089000D105B4F3DF91CF9108951F93CF93DF93E8
:1008A000182FC0E0D0E015C0E12FF0E0B097EE0FB8
:1008B000FF1FEE0FFF1FEE0FFF1FEC0FFD1FE05994
:1008C000FF4F849140E052E160E070E00E94100729
:1008D0002196C830D10544F3DF91CF911F9108953F
:1008E000CF93DF93EC0140E050E160E070E080E204
:1008F0000E94100740E050E160E070E082E00E945A
:10090000100703C00E944D04219688818111FACFFF
:10091000DF91CF910895CF93DF93EC0198859330C9
:10092000B9F48B858823A1F08A8587308CF46EE634
:100930000E9418048EEA91E00E9470048A858F5FFD
:100940008A87EC85FD85868197819D878C8718C075
:100950009230B1F48B85882399F08A85833084F0B6
:100960006EE60E9418048EEA91E00E9470048A8567
:1009700081508A87EC85FD85848195819D878C8750
:100980006EE68A850E94180481EB91E00E94700453
:10099000DF91CF910895EF92FF920F931F93CF9322
:1009A000DF937C018B018BE090E00E941A07EC0141
:1009B000C7010E943B0899878887198308831B8297
:1009C0001A821D821C821F821E82CE01DF91CF916E
:1009D0001F910F91FF90EF900895CF93DF93EC015B
:1009E000CB01BE010E94CB04EA81FB81309721F448
:1009F0009B838A830DC0F90126813781211531053A
:100A0000D1F797838683DC011596FC93EE931497B8
:100A1000DF91CF910895DF92EF92FF920F931F9392
:100A2000CF93DF937C018B01D42EC0E0D0E00BC0CC
:100A3000FE01EE0FFF1FE00FF11F60817181C70102
:100A40000E94ED0421968D2D0D2C000C990BC817DA
:100A5000D90774F3DF91CF911F910F91FF90EF9021
:100A6000DF9008950F931F93CF93DF93EC010E94C3
:100A7000370462E380E00E941804888599850E940B
:100A800070040A80DB81C02D01E010E00EC06AE036
:100A900081E0800F0E941804888599850E94700467
:100AA0000E80DF81C02D0F5F1F4F209781F7DF91F0
:100AB000CF911F910F910895EF92FF920F931F9383
:100AC000CF93DF93CDB7DEB764970FB6F894DEBF50
:100AD0000FBECDBF7C0160E070E084EB91E00E942E
:100AE000CB048C018AE0E4E1F1E0DE011196019093
:100AF0000D928A95E1F745E0BE016F5F7F4FC80117
:100B00000E940B05F80182819381F7019587848704
:100B10008AE0EEE1F1E0DE011B9601900D928A95EC
:100B2000E1F745E0BE01655F7F4FF8018281938167
:100B30000E940B05C8010E94320564960FB6F89416
:100B4000DEBF0FBECDBFDF91CF911F910F91FF9000
:100B5000EF900895CF93DF93FC012185222371F05C
:100B6000EC010484F585E02D6CED71E080859185C4
:100B70000E945508892B11F481E0898BDF91CF9178
:100B800008950F931F93CF93DF93DC011E962C9152
:100B90001E97211104C021E01E962C9326C0EC0163
:100BA0000E94AA058985882301F10C851D8561EEC7
:100BB00071E0F801808591850E945508892B49F4E0
:100BC000D801ED91FC91FD87EC87808191819D8713
:100BD0008C878C859D850E943205EC85FD85828100
:100BE00093819D878C8782E08A87DF91CF911F91C7
:100BF0000F910895CF93DF93EC0140E050E160E066
:100C000074E180E10E94100760E070E180E094E10F
:100C10000E941507682F70E0CE010E94830299831D
:100C2000888360E070E180E094E10E941507682FFE
:100C300070E0CE010E9498029B838A8360E070E19D
:100C400080E094E10E94150790E09D838C8360E032
:100C500070E180E094E10E94150790E09F838E830D
:100C6000CE010E94AD02CE010E9452038987CE01BF
:100C70000E948B04CE010E94C105DF91CF9108959F
:100C8000FF920F931F93CF93DF93EC018B01CB0166
:100C90000E944A03F82E89EF8F1508F4F12CC80141
:100CA0000E944E038A3F08F080E09BE0FE01119213
:100CB0009A95E9F72FEF37E03983288393E09A83F9
:100CC000FB828C83F80181858D83CE01DF91CF91EA
:100CD0001F910F91FF90089581B3806181BB81E8DE
:100CE00080938B0089E080938A0010928500109297
:100CF00084000895CF93DF93CDB7DEB7A8970FB6E2
:100D0000F894DEBF0FBECDBF0E946C068FE190E06D
:100D10000E94E6060E94FF060E9406070E945E03EC
:100D2000CE0101960E946D020E943704CE01019609
:100D30000E945C050E94DA060E940F02FE01739673
:100D40008BE0DF011D928A95E9F7CE0101960E94A2
:100D5000FA05CE0101960E94F1028A891F928F93B3
:100D600086EE91E09F938F930E9465088A890F9089
:100D70000F900F900F90882341F3BE016F5F7F4F5C
:100D8000CE014E960E9440068BE0FE017E96DE016B
:100D9000539601900D928A95E1F7CE0143960E94F9
:100DA0003002D3CF88B38F7E88BB089588B380612B
:100DB00088BB089580EB87BB0E94D60681E58DB97C
:100DC00008958FB9779BFECF8FB1089590BD89B9F3
:100DD00088E18AB98EE880BD08955D9BFECF8CB90D
:100DE0000895CF93C82F8A3019F48DE00E94ED0644
:100DF0008C2F0E94ED0680E090E0CF91089586E070
:100E000091E09093F1018093F001089585B7806897
:100E100085BF80B7877E80BF80B7806280BF08951E
:100E2000FA01E60FF71F80830895860F971FFC01D4
:100E3000808108950F931F93CF93DF9382309105A4
:100E400010F482E090E0E091EC01F091ED0120E0FF
:100E500030E0A0E0B0E0309719F14081518102818B
:100E6000138148175907C8F08417950769F410973C
:100E700031F012960C93129713961C9327C000938F
:100E8000EC011093ED0122C02115310519F0421734
:100E9000530718F49A01BD01EF01DF01F801DBCF20
:100EA00021153105F9F0281B390B2430310580F468
:100EB0008A819B816115710521F0FB0193838283F7
:100EC00004C09093ED018093EC01FE01329644C082
:100ED000FE01E20FF31F8193919322503109398370
:100EE00028833AC02091EA013091EB01232B41F491
:100EF00020910201309103013093EB012093EA012C
:100F000020910001309101012115310541F42DB7E7
:100F10003EB74091040150910501241B350BE0912F
:100F2000EA01F091EB01E217F307A0F42E1B3F0B4F
:100F30002817390778F0AC014E5F5F4F241735074B
:100F400048F04E0F5F1F5093EB014093EA018193ED
:100F5000919302C0E0E0F0E0CF01DF91CF911F91CB
:100F60000F910895CF93DF93009709F481C0FC019E
:100F7000329713821282A091EC01B091ED0110978B
:100F800081F420813181820F931F2091EA013091F9
:100F9000EB012817390751F5F093EB01E093EA01D3
:100FA00067C0ED0120E030E0CE17DF0740F44A8152
:100FB0005B819E0141155105F1F0EA01F5CFD38324
:100FC000C28340815181840F951FC817D90759F4F6
:100FD00088819981840F951F0296918380838A81ED
:100FE0009B81938382832115310529F4F093ED01D0
:100FF000E093EC013DC0E901FB83EA8349915991FB
:10100000C40FD51FEC17FD0761F480819181840F17
:10101000951F0296E90199838883828193819B833E
:101020008A83E0E0F0E012968D919C9113970097EF
:1010300019F0FD01DC01F7CF8D919C9111979D0175
:101040002E5F3F4F820F931F2091EA013091EB01F9
:101050002817390769F4309729F41092ED0110929E
:10106000EC0102C013821282B093EB01A093EA015B
:10107000DF91CF9108950F931F93CF93DF938C014E
:10108000FC0101900020E9F7CF01801B910B0E9429
:101090001A07EC01009719F0B8010E945E08CE0112
:1010A000DF91CF911F910F910895FB01DC018D918C
:1010B000019080190110D9F3990B0895FB01DC010F
:1010C00001900D920020E1F70895A0E0B0E0EBE67A
:1010D000F8E00C94230BAE014B5F5F4FFA01619176
:1010E0007191AF018091F0019091F1010E9482080D
:1010F000E2E00C943F0B6091F0017091F1010E94CD
:10110000790A0895ABE0B0E0E8E8F8E00C94130B3E
:101110006C017B018A01FC0117821682838181FFA9
:10112000CCC1CE0101963C01F6019381F70193FDFC
:10113000859193FF81917F01882309F4BAC185329B
:1011400039F493FD859193FF81917F01853229F4D4
:10115000B60190E00E94790AE7CF912C212C312C26
:10116000FFE1F315D8F08B3279F038F4803279F062
:101170008332A1F4232D20611DC08D3261F08033B4
:1011800069F4232D216016C0832D8260382EE32D53
:10119000E4603E2E2AC0F32DF8601DC037FC2DC040
:1011A00020ED280F2A3040F08E32B9F436FC81C190
:1011B000232D2064322E19C036FE06C08AE0989E88
:1011C000200D1124922E11C0EAE02E9E200D112434
:1011D000222EF32DF0623F2E08C08C3621F4832D91
:1011E0008068382E02C0883641F4F70193FD85915E
:1011F00093FF81917F018111B3CF982F9F7D9554EB
:10120000933028F40C5F1F4F9FE399830DC0833602
:1012100031F0833771F0833509F059C021C0F801EE
:10122000808189830E5F1F4F88248394912C530102
:1012300013C02801F2E04F0E511CF801A080B180CC
:1012400036FE03C0692D70E002C06FEF7FEFC5016D
:101250000E946E0A4C018201F32DFF773F2E16C0CB
:10126000280122E0420E511CF801A080B18036FE18
:1012700003C0692D70E002C06FEF7FEFC5010E94CF
:10128000630A4C01F32DF0683F2E820133FC1BC032
:10129000822D90E088169906B0F4B60180E290E0C5
:1012A0000E94790A2A94F4CFF50137FC859137FE24
:1012B00081915F01B60190E00E94790A21102A9481
:1012C00021E0821A91088114910471F7E8C08436F4
:1012D00011F0893641F5F80137FE07C06081718150
:1012E000828193810C5F1F4F08C060817181072E3E
:1012F000000C880B990B0E5F1F4FF32DFF763F2ECE
:1013000097FF09C090958095709561957F4F8F4F9D
:101310009F4FF0683F2E2AE030E0A3010E94B50AFB
:10132000882E861845C0853731F4232D2F7EB22EA6
:101330002AE030E025C0932D997FB92E8F36C1F079
:1013400018F4883579F0B5C0803719F0883721F066
:10135000B0C0E92FE061BE2EB4FE0DC0FB2DF460DD
:10136000BF2E09C034FE0AC0292F2660B22E06C047
:1013700028E030E005C020E130E002C020E132E0AA
:10138000F801B7FE07C060817181828193810C5F93
:101390001F4F06C06081718180E090E00E5F1F4F9B
:1013A000A3010E94B50A882E8618FB2DFF773F2ED9
:1013B00036FE0DC0232D2E7FA22E891458F434FE44
:1013C0000BC032FC09C0832D8E7EA82E05C0B82C20
:1013D000A32C03C0B82C01C0B92CA4FE0FC0FE0181
:1013E000E80DF11D8081803321F49A2D997EA92E7C
:1013F00009C0A2FE06C0B394B39404C08A2D8678B7
:1014000009F0B394A3FC11C0A0FE06C0B21488F486
:10141000280C922C9B180EC0B21460F4B60180E226
:1014200090E00E94790AB394F7CFB21418F42B1805
:1014300002C0982C212CA4FE10C0B60180E390E0DD
:101440000E94790AA2FE17C0A1FC03C088E790E0C1
:1014500002C088E590E0B6010CC08A2D867859F06C
:10146000A1FE02C08BE201C080E2A7FC8DE2B601C2
:1014700090E00E94790A891438F4B60180E390E084
:101480000E94790A9A94F7CF8A94F301E80DF11D2E
:101490008081B60190E00E94790A8110F5CF222068
:1014A00009F442CEB60180E290E00E94790A2A94C3
:1014B000F6CFF6018681978102C08FEF9FEF2B96C2
:1014C000E2E10C942F0BFC0105906150704001107B
:1014D000D8F7809590958E0F9F1F0895FC0161505D
:1014E000704001900110D8F7809590958E0F9F1F46
:1014F00008950F931F93CF93DF93FB01238121FD69
:1015000003C08FEF9FEF2CC022FF16C0468157818A
:10151000248135814217530744F4A081B1819D0194
:101520002F5F3F4F318320838C93268137812F5F3C
:101530003F4F3783268314C08B01EC01FB010084ED
:10154000F185E02D0995892BE1F6D80116968D914C
:101550009C911797019617969C938E931697CE01A0
:10156000DF91CF911F910F910895FA01AA2728309A
:1015700051F1203181F1E8946F936E7F6E5F7F4F60
:101580008F4F9F4FAF4FB1E03ED0B4E03CD0670FDC
:10159000781F891F9A1FA11D680F791F8A1F911D2F
:1015A000A11D6A0F711D811D911DA11D20D009F47F
:1015B00068943F912AE0269F11243019305D3193C1
:1015C000DEF6CF010895462F4770405D4193B3E0AA
:1015D0000FD0C9F7F6CF462F4F70405D4A3318F051
:1015E000495D31FD4052419302D0A9F7EACFB4E002
:1015F000A6959795879577956795BA95C9F70097BA
:101600006105710508959B01AC010A2E069457955A
:10161000479537952795BA95C9F7620F731F841FB1
:10162000951FA01D08952F923F924F925F926F9247
:101630007F928F929F92AF92BF92CF92DF92EF9262
:10164000FF920F931F93CF93DF93CDB7DEB7CA1BE3
:10165000DB0B0FB6F894DEBF0FBECDBF09942A880E
:10166000398848885F846E847D848C849B84AA84B6
:10167000B984C884DF80EE80FD800C811B81AA8143
:10168000B981CE0FD11D0FB6F894DEBF0FBECDBF0E
:08169000ED010895F894FFCF6D
:101698000000F40120000000000200000000F10634
:1016A80000000000B901C001C701CE01D501DC016D
:1016B800C501BE01CC01E1014D656E7520706F69F1
:1016C8006E7465723A202564200A00427574746F3E
:1016D8006E3A202564200A004A6F79737469636B37
:1016E80020646972656374696F6E3A202564200A04
:1016F800004A6F79737469636B20783A20256420F7
:101708002525200A004A6F79737469636B20793A3A
:10171800202564202525200A00536C696465722001
:101728006C6566743A202564200A00536C69646508
:10173800722072696768743A202564200A002020A4
:10174800003C2D00486F6D65004D656E75203100B9
:101758004D656E752032004D656E752033004D6500
:101768006E752034004D656E75203500506C6179BA
:0A177800004261636B0025640A0063
:00000001FF
