S01100006279676765726E56352E737265639A
S11300000C94B4010C94D1010C94D1010C94D10141
S11300100C94D1010C94D1010C94D1010C94D10114
S11300200C94D1010C94D1010C94D1010C94D10104
S11300300C94D1010C94D1010C94D1010C94D101F4
S11300400C94D1010C94D1010C94D1010C94D101E4
S11300500C94D1010C94D1010C94D1010C94D101D4
S11300600C94D1010C94D1010C94D1010C94D101C4
S1130070000000000000000000065F5F06000000B2
S11300800007070007070000147F7F147F7F140018
S1130090242E6B6B3A120000466630180C66620020
S11300A0307A4F5D377A48000407030000000000EF
S11300B0001C3E63410000000041633E1C00000040
S11300C0082A3E1C1C3E2A0808083E3E0808000078
S11300D000A0E0600000000008080808080800000C
S11300E000006060000000006030180C060301008E
S11300F03E7F594D7F3E000042427F7F40400000DA
S1130100627359496F660000226349497F360000D3
S1130110181C16137F7F1000276745457D390000A2
S11301203C7E4B4979300000036371190F070000CE
S1130130367F49497F360000064F49693F1E00005B
S113014000006C6C0000000000A0EC6C00000000DB
S1130150081C366341000000141414141414000025
S1130160004163361C080000020351590F060000C9
S11301703E7F415D5D1F1E007C7E13137E7C00006C
S1130180417F7F49497F36001C3E63414163220021
S1130190417F7F41637F1C00417F7F495D41630054
S11301A0417F7F491D0103001C3E6341517372006E
S11301B07F7F08087F7F000000417F7F41000000AF
S11301C0307040417F3F0100417F7F081C7763000E
S11301D0417F7F41406070007F7F060C067F7F0077
S11301E07F7F060C187F7F001C3E6341633E1C002A
S11301F0417F7F49090F06001E3F21717F5E000089
S1130200417F7F19396F460026674D597B320000C4
S113021003417F7F410300007F7F40407F7F0000D8
S11302201F3F60603F1F00007F7F3018307F7F00DA
S113023063771C081C776300074F78784F0700002A
S11302406773594D47637100007F7F41410000008F
S11302500103060C183060000041417F7F0000005C
S1130260080C0603060C0800808080808080808053
S11302700000030704000000207454543C7840003C
S1130280413F7F44447C3800387C44446C2800005F
S1130290307848493F7F4000387C54545C18000053
S11302A0487E7F490302000098BCA4A4F87C0400A3
S11302B0417F7F08047C780000447D7D400000007D
S11302C040C484FD7D000000417F7F10386C4400F1
S11302D000417F7F400000007C7C0C180C7C78007F
S11302E07C7C04047C780000387C44447C38000026
S11302F084FCF8A4243C1800183C24A4F8FC8400D2
S1130300447C78441C180000485C54547424000055
S113031000043E7F442400003C7C40403C7C400080
S11303201C3C60603C1C00003C7C6030607C3C00F9
S1130330446C3810386C44009CBCA0A0FC7C0000C9
S11303404C64745C4C64000008083E774141000032
S113035000000077770000004141773E0808000064
S1130360020301030203010011241FBECFEFD4E0F6
S1130370DEBFCDBF11E0A0E0B1E0ECEAFCE002C0DA
S113038005900D92A83DB107D9F721E0A8EDB1E0A1
S113039001C01D92A23EB207E1F70E9495040C949D
S11303A054060C940000CF93C82F0E94CF0483E01E
S11303B00E94DE048C2F0E94DE0480E00E94DE0492
S11303C0C82F0E94D3048C2F90E0CF910895CF932F
S11303D0DF93D82FC62F0E94CF0482E00E94DE0450
S11303E08D2F0E94DE048C2F0E94DE040E94D30411
S11303F0DF91CF9108950E94CF0480EC0E94DE0427
S11304000E94D3040895CF93C82F0E94CF048C2F49
S113041081680E94DE040E94D304CF9108950E9453
S1130420FB0189EF90E00197F1F700C000000E9402
S1130430CF0461E48AE20E94E70169E889E20E944C
S1130440E70162E088E20E94E7018FE00E94D301A5
S1130450682F6F718FE00E94E7010E94D304089512
S11304600F931F93CF93DF938C01FC016081718103
S113047076956795769567957695679581E30E945D
S1130480E701F80160816295660F607E82E30E9455
S1130490E701F801628185E30E94E701C0E0D0E052
S11304A009C0F801EC0FFD1F63818C2F8A5C0E9448
S11304B0E7012196F801828190E0C817D9078CF3EF
S11304C081E00E940302DF91CF911F910F91089563
S11304D0FC01118210821382128215821482178207
S11304E0168284E08087118682E0828713861586CF
S11304F014861686089540E050E160E070E08EEACC
S11305000E940D0540E050E160E070E081EA0E9445
S11305100D0540E050E160E070E08AED0E940D05B9
S113052040E050E160E070E082E10E940D0540E0AF
S113053050E160E070E088EC0E940D0540E050E17D
S113054060E070E088EA0E940D0540E050E160E060
S113055070E08FE30E940D0540E050E160E070E040
S113056085ED0E940D0540E050E160E070E080E818
S11305700E940D0540E050E160E070E081E80E94D7
S11305800D0540E050E160E070E080E50E940D055B
S113059040E050E160E070E089ED0E940D0540E02C
S11305A050E160E070E081E20E940D0540E050E11E
S11305B060E070E080E20E940D0540E050E160E000
S11305C070E082E00E940D0540E050E160E070E0E0
S11305D08BED0E940D0540E050E160E070E080E3A7
S11305E00E940D0540E050E160E070E08DEA0E9459
S11305F00D0540E050E160E070E080E00E940D05F0
S113060040E050E160E070E084EA0E940D0540E0C3
S113061050E160E070E086EA0E940D0540E050E1A0
S113062060E070E08FEA0E940D05089540E050E11B
S113063060E070E080550E940D050895CF93C82FA7
S113064040E050E160E070E08F700E940D058C2F57
S1130650859585958595859540E050E160E070E04D
S113066080610E940D05CF910895CF93C62F0E94FB
S113067016038C2F0E941E03CF910895CF93DF930E
S113068060E00E943503C0E0D0E008C040E052E1E1
S113069060E070E080E00E940D052196C038D1052D
S11306A0ACF3DF91CF910895CF93DF9360E080E0C6
S11306B00E943503C0E0D0E007C08C2F0E943E03A7
S11306C08C2F0E9416032196C830D105B4F3DF9114
S11306D0CF9108951F93CF93DF93182FC0E0D0E0FC
S11306E015C0E12FF0E0B097EE0FFF1FEE0FFF1FD4
S11306F0EE0FFF1FEC0FFD1FE059FF4F849140E008
S113070052E160E070E00E940D052196C830D105E9
S113071044F3DF91CF911F910895CF93DF93EC01C0
S113072040E050E160E070E080E20E940D0540E0AE
S113073050E160E070E082E00E940D0503C00E9479
S11307406A03219688818111FACFDF91CF910895B0
S1130750EF92FF920F931F93CF93DF937C018B0152
S11307608BE090E00E941205EC01C7010E94330661
S113077099878887198308831B821A821D821C82A9
S11307801F821E82CE01DF91CF911F910F91FF90A6
S1130790EF900895CF93DF93EC01CB01BE010E944B
S11307A0A803EA81FB81309721F49B838A830DC0DF
S11307B0F9012681378121153105D1F79783868385
S11307C0DC011596FC93EE931497DF91CF91089575
S11307D0DF92EF92FF920F931F93CF93DF937C01ED
S11307E08B01D42EC0E0D0E00BC0FE01EE0FFF1F42
S11307F0E00FF11F60817181C7010E94CA03219635
S11308008D2D0D2C000C990BC817D90774F3DF91AB
S1130810CF911F910F91FF90EF90DF9008950F9368
S11308201F93CF93DF93EC010E94540362E380E0B3
S11308300E943503888599850E948D030A80DB8197
S1130840C02D01E010E00EC06AE081E0800F0E943C
S11308503503888599850E948D030E80DF81C02D24
S11308600F5F1F4F209781F7DF91CF911F910F9159
S11308700895EF92FF920F931F93CF93DF93CDB719
S1130880DEB762970FB6F894DEBF0FBECDBF7C0112
S113089060E070E082EB91E00E94A8038C0188E0A4
S11308A0E4E1F1E0DE01119601900D928A95E1F701
S11308B044E0BE016F5F7F4FC8010E94E803F80166
S11308C082819381F701958784878AE0ECE1F1E0E6
S11308D0DE01199601900D928A95E1F745E0BE017B
S11308E0675F7F4FF801828193810E94E803C8010A
S11308F00E940F0462960FB6F894DEBF0FBECDBF00
S1130900DF91CF911F910F91FF90EF90089581B3E4
S1130910806181BB81E880938B0089E080938A00A9
S113092010928500109284000895CF93DF93CDB781
S1130930DEB76A970FB6F894DEBF0FBECDBF0E9434
S113094087048FE190E00E94E3040E94FC040E946B
S113095003050E947B02CE0101960E9468020E9458
S11309605403CE0101960E9439040E94D7040E94C8
S11309700F02FE0170968BE0DF011D928A95E9F764
S11309808FEF97E0998B888B82E08A8B8CEC8B8B32
S11309908BEB8C8BCE0140960E943002FBCF88B348
S11309A08F7E88BB089588B3806188BB089580EBEF
S11309B087BB0E94D30481E58DB908958FB9779BD5
S11309C0FECF8FB1089590BD89B988E18AB98EE8C8
S11309D080BD08955D9BFECF8CB90895CF93C82F39
S11309E08A3019F48DE00E94EA048C2F0E94EA04F4
S11309F080E090E0CF91089586E091E09093DF014C
S1130A008093DE01089585B7806885BF80B7877EAF
S1130A1080BF80B7806280BF0895FA01E60FF71F98
S1130A20808308950F931F93CF93DF9382309105B2
S1130A3010F482E090E0E091DA01F091DB0120E033
S1130A4030E0A0E0B0E0309719F14081518102819B
S1130A50138148175907C8F08417950769F410974C
S1130A6031F012960C93129713961C9327C000939F
S1130A70DA011093DB0122C02115310519F0421768
S1130A80530718F49A01BD01EF01DF01F801DBCF30
S1130A9021153105F9F0281B390B2430310580F478
S1130AA08A819B816115710521F0FB019383828307
S1130AB004C09093DB018093DA01FE01329644C0B6
S1130AC0FE01E20FF31F8193919322503109398380
S1130AD028833AC02091D8013091D901232B41F4C5
S1130AE020910201309103013093D9012093D80160
S1130AF020910001309101012115310541F42DB7F8
S1130B003EB74091040150910501241B350BE0913F
S1130B10D801F091D901E217F307A0F42E1B3F0B83
S1130B202817390778F0AC014E5F5F4F241735075B
S1130B3048F04E0F5F1F5093D9014093D801819321
S1130B40919302C0E0E0F0E0CF01DF91CF911F91DB
S1130B500F910895CF93DF93009709F481C0FC01AE
S1130B60329713821282A091DA01B091DB011097BF
S1130B7081F420813181820F931F2091D80130911B
S1130B80D9012817390751F5F093D901E093D80119
S1130B9067C0ED0120E030E0CE17DF0740F44A8162
S1130BA05B819E0141155105F1F0EA01F5CFD38334
S1130BB0C28340815181840F951FC817D90759F406
S1130BC088819981840F951F0296918380838A81FD
S1130BD09B81938382832115310529F4F093DB01F2
S1130BE0E093DA013DC0E901FB83EA83499159911D
S1130BF0C40FD51FEC17FD0761F480819181840F28
S1130C00951F0296E90199838883828193819B834E
S1130C108A83E0E0F0E012968D919C9113970097FF
S1130C2019F0FD01DC01F7CF8D919C9111979D0185
S1130C302E5F3F4F820F931F2091D8013091D9012D
S1130C402817390769F4309729F41092DB011092C0
S1130C50DA0102C013821282B093D901A093D801A1
S1130C60DF91CF9108950F931F93CF93DF938C015E
S1130C70FC0101900020E9F7CF01801B910B0E9439
S1130C801205EC01009719F0B8010E944D06CE013F
S1130C90DF91CF911F910F910895FB01DC01019029
S10F0CA00D920020E1F70895F894FFCFB6
S1130CAC0000E20120000000000200000000EE043D
S1130CBC00000000B701BE01C501CC01B701BE01A3
S1130CCCC501CC01D3014D656E7520706F696E74CE
S1130CDC65723A202564200A00427574746F6E3A6A
S1130CEC202564200A004A6F79737469636B20644D
S1130CFC6972656374696F6E3A202564200A004A30
S1130D0C6F79737469636B20783A202564202525E8
S1130D1C200A004A6F79737469636B20793A202531
S1130D2C64202525200A00536C69646572206C6567
S1130D3C66743A202564200A00536C696465722039
S1130D4C72696768743A202564200A002020003CEC
S1130D5C2D00486F6D65004D656E752031004D6535
S1130D6C6E752032004D656E752033004D656E75C1
S10B0D7C2034004261636B00A6
S9030000FC
