S01100006279676765726E56352E737265639A
S11300000C9438000C9455000C9455000C94550035
S11300100C9455000C9455000C9455000C94550008
S11300200C9455000C9455000C9455000C945500F8
S11300300C9455000C9455000C9455000C945500E8
S11300400C9455000C9455000C9455000C945500D8
S11300500C9455000C9455000C9455000C945500C8
S11300600C9455000C9455000C9455000C945500B8
S113007011241FBECFEFD4E0DEBFCDBF11E0A0E05E
S1130080B1E0E2EBF8E002C005900D92A83DB107A3
S1130090D9F721E0A8EDB1E001C01D92AE3DB20751
S11300A0E1F70E94EA000C9457040C940000BC0190
S11300B068587442643071055CF024E6269FC001E0
S11300C0279F900D112467E770E00E944A010EC03B
S11300D06D3F8FEF780754F424E6269FC001279FD5
S11300E0900D112468E870E00E944A01CB01089544
S11300F0CF93DF93EC0160E074E180E190E00E9433
S1130100420180E094E10E9446010E9457009983D5
S1130110888380E094E10E9446010E9457009B83FB
S11301208A8380E094E10E94460194529D838C83EB
S113013080E094E10E94460194529F838E83DF9174
S1130140CF910895CF93DF93EC01888199819F9398
S11301508F938EE091E09F938F930E9472018A8126
S11301609B819F938F9382E291E09F938F930E9450
S113017072018C819D819F938F9386E391E09F937D
S11301808F930E9472018E819F819F938F938BE442
S113019091E09F938F930E9472018AE090E00E9405
S11301A088018DB79EB740960FB6F8949EBF0FBED8
S11301B08DBFDF91CF91089581B3806181BB81E8C8
S11301C080938B0089E080938A00109285001092BE
S11301D084000895CF93DF93CDB7DEB728970FB689
S11301E0F894DEBF0FBECDBF0E94DC008FE190E02B
S11301F00E9418010E9431010E94380183ED91E0B0
S11302009F938F930E9472010F900F90CE010196DD
S11302100E947800CE0101960E94A2002FEF8FEF7A
S113022092E0215080409040E1F700C000C0EECF42
S113023090BD89B988E18AB98EE880BD08955D9B37
S1130240FECF8CB90895CF93C82F8A3019F48DE06E
S11302500E941F018C2F0E941F0180E090E0CF912B
S1130260089580E091E09093DB018093DA01089592
S113027085B7806885BF80B7877E80BF80B780627E
S113028080BF0895FB01F05F80830895905FFC01B7
S11302908081089597FB072E16F4009407D077FD0C
S11302A009D00E945E0107FC05D03EF4909581952B
S11302B09F4F0895709561957F4F0895AA1BBB1BAE
S11302C051E107C0AA1FBB1FA617B70710F0A61B52
S11302D0B70B881F991F5A95A9F780959095BC0173
S11302E0CD010895A0E0B0E0E8E7F1E00C9430041B
S11302F0AE014B5F5F4FFA0161917191AF01809143
S1130300DA019091DB010E948F01E2E00C944C042D
S11303106091DA017091DB010E9486030895ABE0DD
S1130320B0E0E5E9F1E00C9420046C017B018A0162
S1130330FC0117821682838181FFCCC1CE01019614
S11303403C01F6019381F70193FD859193FF81911F
S11303507F01882309F4BAC1853239F493FD85916C
S113036093FF81917F01853229F4B60190E00E94C8
S11303708603E7CF912C212C312CFFE1F315D8F023
S11303808B3279F038F4803279F08332A1F4232D62
S113039020611DC08D3261F0803369F4232D21600A
S11303A016C0832D8260382EE32DE4603E2E2AC0D1
S11303B0F32DF8601DC037FC2DC020ED280F2A3026
S11303C040F08E32B9F436FC81C1232D2064322EE4
S11303D019C036FE06C08AE0989E200D1124922E84
S11303E011C0EAE02E9E200D1124222EF32DF0627E
S11303F03F2E08C08C3621F4832D8068382E02C02D
S1130400883641F4F70193FD859193FF81917F0133
S11304108111B3CF982F9F7D9554933028F40C5FAE
S11304201F4F9FE399830DC0833631F0833771F0FA
S1130430833509F059C021C0F801808189830E5F9A
S11304401F4F88248394912C530113C02801F2E098
S11304504F0E511CF801A080B18036FE03C0692DF7
S113046070E002C06FEF7FEFC5010E947B034C0177
S11304708201F32DFF773F2E16C0280122E0420EA1
S1130480511CF801A080B18036FE03C0692D70E0D4
S113049002C06FEF7FEFC5010E9470034C01F32D82
S11304A0F0683F2E820133FC1BC0822D90E0881639
S11304B09906B0F4B60180E290E00E9486032A9483
S11304C0F4CFF50137FC859137FE81915F01B601C8
S11304D090E00E94860321102A9421E0821A910858
S11304E08114910471F7E8C0843611F0893641F51E
S11304F0F80137FE07C060817181828193810C5FAE
S11305001F4F08C060817181072E000C880B990B66
S11305100E5F1F4FF32DFF763F2E97FF09C0909576
S11305208095709561957F4F8F4F9F4FF0683F2E58
S11305302AE030E0A3010E94C203882E861845C039
S1130540853731F4232D2F7EB22E2AE030E025C0EA
S1130550932D997FB92E8F36C1F018F4883579F030
S1130560B5C0803719F0883721F0B0C0E92FE061B9
S1130570BE2EB4FE0DC0FB2DF460BF2E09C034FEA8
S11305800AC0292F2660B22E06C028E030E005C03C
S113059020E130E002C020E132E0F801B7FE07C0FC
S11305A060817181828193810C5F1F4F06C06081DD
S11305B0718180E090E00E5F1F4FA3010E94C2038F
S11305C0882E8618FB2DFF773F2E36FE0DC0232D77
S11305D02E7FA22E891458F434FE0BC032FC09C0BD
S11305E0832D8E7EA82E05C0B82CA32C03C0B82C56
S11305F001C0B92CA4FE0FC0FE01E80DF11D8081DD
S1130600803321F49A2D997EA92E09C0A2FE06C03A
S1130610B394B39404C08A2D867809F0B394A3FCF0
S113062011C0A0FE06C0B21488F4280C922C9B18AA
S11306300EC0B21460F4B60180E290E00E9486031A
S1130640B394F7CFB21418F42B1802C0982C212CB1
S1130650A4FE10C0B60180E390E00E948603A2FECF
S113066017C0A1FC03C088E790E002C088E590E0D1
S1130670B6010CC08A2D867859F0A1FE02C08BE227
S113068001C080E2A7FC8DE2B60190E00E948603DF
S1130690891438F4B60180E390E00E9486039A94AA
S11306A0F7CF8A94F301E80DF11D8081B60190E043
S11306B00E9486038110F5CF222009F442CEB601B0
S11306C080E290E00E9486032A94F6CFF6018681A8
S11306D0978102C08FEF9FEF2B96E2E10C943C04CC
S11306E0FC010590615070400110D8F780959095F9
S11306F08E0F9F1F0895FC016150704001900110FE
S1130700D8F7809590958E0F9F1F08950F931F9390
S1130710CF93DF93FB01238121FD03C08FEF9FEF74
S11307202CC022FF16C0468157812481358142178F
S1130730530744F4A081B1819D012F5F3F4F318362
S113074020838C93268137812F5F3F4F3783268305
S113075014C08B01EC01FB010084F185E02D0995A7
S1130760892BE1F6D80116968D919C9117970196E5
S113077017969C938E931697CE01DF91CF911F917C
S11307800F910895FA01AA27283051F1203181F1FF
S1130790E8946F936E7F6E5F7F4F8F4F9F4FAF4F85
S11307A0B1E03ED0B4E03CD0670F781F891F9A1F98
S11307B0A11D680F791F8A1F911DA11D6A0F711D4C
S11307C0811D911DA11D20D009F468943F912AE058
S11307D0269F11243019305D3193DEF6CF01089540
S11307E0462F4770405D4193B3E00FD0C9F7F6CF71
S11307F0462F4F70405D4A3318F0495D31FD405239
S1130800419302D0A9F7EACFB4E0A69597958795CE
S113081077956795BA95C9F70097610571050895AD
S11308209B01AC010A2E0694579547953795279559
S1130830BA95C9F7620F731F841F951FA01D0895F1
S11308402F923F924F925F926F927F928F929F92DC
S1130850AF92BF92CF92DF92EF92FF920F931F93CA
S1130860CF93DF93CDB7DEB7CA1BDB0B0FB6F8947B
S1130870DEBF0FBECDBF09942A88398848885F84BB
S11308806E847D848C849B84AA84B984C884DF802C
S1130890EE80FD800C811B81AA81B981CE0FD11D10
S11308A00FB6F894DEBF0FBECDBFED010895F894E6
S10508B0FFCF74
S11308B200000002000000002301000000004A6F53
S11308C279737469636B20783A2025642025252086
S11308D20A004A6F79737469636B20793A2025643C
S11308E2202525200A00536C69646572206C6566B4
S11308F2743A202564202525200A00536C69646516
S1130902722072696768743A202564202525200ABA
S1130912005374617274696E67205352414D20749E
S11309226573742E2E2E002564005352414D20749B
S113093265737420636F6D706C6574656420776988
S11309427468200A253464206572726F7273206998
S11309526E20777269746520706861736520616EB8
S113096264200A253464206572726F727320696E82
S11309722072657472696576616C20706861736552
S10B09820A0A0048656900003F
S9030000FC
