:100000000C94B4010C94D1010C94D1010C94D10145
:100010000C94D1010C94D1010C94D1010C94D10118
:100020000C94D1010C94D1010C94D1010C94D10108
:100030000C94D1010C94D1010C94D1010C94D101F8
:100040000C94D1010C94D1010C94D1010C94D101E8
:100050000C94D1010C94D1010C94D1010C94D101D8
:100060000C94D1010C94D1010C94D1010C94D101C8
:10007000000000000000000000065F5F06000000B6
:100080000007070007070000147F7F147F7F14001C
:10009000242E6B6B3A120000466630180C66620024
:1000A000307A4F5D377A48000407030000000000F3
:1000B000001C3E63410000000041633E1C00000044
:1000C000082A3E1C1C3E2A0808083E3E080800007C
:1000D00000A0E06000000000080808080808000010
:1000E00000006060000000006030180C0603010092
:1000F0003E7F594D7F3E000042427F7F40400000DE
:10010000627359496F660000226349497F360000D7
:10011000181C16137F7F1000276745457D390000A6
:100120003C7E4B4979300000036371190F070000D2
:10013000367F49497F360000064F49693F1E00005F
:1001400000006C6C0000000000A0EC6C00000000DF
:10015000081C366341000000141414141414000029
:10016000004163361C080000020351590F060000CD
:100170003E7F415D5D1F1E007C7E13137E7C000070
:10018000417F7F49497F36001C3E63414163220025
:10019000417F7F41637F1C00417F7F495D41630058
:1001A000417F7F491D0103001C3E63415173720072
:1001B0007F7F08087F7F000000417F7F41000000B3
:1001C000307040417F3F0100417F7F081C77630012
:1001D000417F7F41406070007F7F060C067F7F007B
:1001E0007F7F060C187F7F001C3E6341633E1C002E
:1001F000417F7F49090F06001E3F21717F5E00008D
:10020000417F7F19396F460026674D597B320000C8
:1002100003417F7F410300007F7F40407F7F0000DC
:100220001F3F60603F1F00007F7F3018307F7F00DE
:1002300063771C081C776300074F78784F0700002E
:100240006773594D47637100007F7F414100000093
:100250000103060C183060000041417F7F00000060
:10026000080C0603060C0800808080808080808057
:100270000000030704000000207454543C78400040
:10028000413F7F44447C3800387C44446C28000063
:10029000307848493F7F4000387C54545C18000057
:1002A000487E7F490302000098BCA4A4F87C0400A7
:1002B000417F7F08047C780000447D7D4000000081
:1002C00040C484FD7D000000417F7F10386C4400F5
:1002D00000417F7F400000007C7C0C180C7C780083
:1002E0007C7C04047C780000387C44447C3800002A
:1002F00084FCF8A4243C1800183C24A4F8FC8400D6
:10030000447C78441C180000485C54547424000059
:1003100000043E7F442400003C7C40403C7C400084
:100320001C3C60603C1C00003C7C6030607C3C00FD
:10033000446C3810386C44009CBCA0A0FC7C0000CD
:100340004C64745C4C64000008083E774141000036
:1003500000000077770000004141773E0808000068
:10036000020301030203010011241FBECFEFD4E0FA
:10037000DEBFCDBF11E0A0E0B1E0ECECF5E102C0E2
:1003800005900D92A63EB107D9F721E0A6EEB1E0A7
:1003900001C01D92A03FB207E1F70E94CD050C9469
:1003A000E40A0C940000CF93C82F0E944B0683E010
:1003B0000E945A068C2F0E945A0680E00E945A061C
:1003C000C82F0E944F068C2F90E0CF910895CF93B5
:1003D000DF93D82FC62F0E944B0682E00E945A0658
:1003E0008D2F0E945A068C2F0E945A060E944F069B
:1003F000DF91CF9108950E944B0680EC0E945A062F
:100400000E944F0608950E94FB0189EF90E001973A
:10041000F1F700C000000E944B0663E88AE20E94E8
:10042000E70160EB89E20E94E70165E088E20E9453
:10043000E7018FE00E94D301682F6F718FE00E9467
:10044000E7010E944F060895DF92EF92FF920F930B
:100450001F93CF93DF938C016130710571F00F2EE4
:10046000F6E6EF2EF02D0F2EF5E6FF2EF02D0F2ED7
:10047000F2E6DF2EF02D81E60DC00F2EF6E7EF2E0F
:10048000F02D0F2EF5E7FF2EF02D0F2EF2E7DF2EC9
:10049000F02D81E70E94D301EC018D2D0E94D30144
:1004A000DD27CC0FDD1FCC0FDD1FCC0FDD1F8295AC
:1004B00086958770C82BF801D183C0838F2D0E9449
:1004C000D301F82EF8018283C0E0D0E009C08C2F60
:1004D0008E0D0E94D301F801EC0FFD1F838321963E
:1004E0008F2D90E0C817D90794F3C801DF91CF9101
:1004F0001F910F91FF90EF90DF900895FC01118202
:10050000108213821282158214821782168284E06E
:100510008087118682E08287138615861486168668
:1005200008958E5594428430910584F48D3F2FEFC9
:10053000920764F444E6489F9001499F300D1124CE
:10054000C90168E870E00E949306CB010895FC01A0
:1005500080819181CD9754F08085823019F081E0BF
:10056000838701C0138682E080870895808191810E
:10057000843C9F4F54F48085833019F081E0838759
:1005800001C0138683E08087089582819381CD978F
:1005900054F08085813019F081E0838701C0138693
:1005A00081E08087089582819381843C9F4F4CF441
:1005B0008085882319F081E0838701C01386108627
:1005C00008958085843019F081E0838701C0138607
:1005D00084E08087089584E088BB87B38B7F87BBE6
:1005E00010BEB29B02C080E0089581E0089540E013
:1005F00050E160E070E08EEA0E94890640E050E140
:1006000060E070E081EA0E94890640E050E160E02D
:1006100070E08AED0E94890640E050E160E070E001
:1006200082E10E94890640E050E160E070E088ECE1
:100630000E94890640E050E160E070E088EA0E9494
:10064000890640E050E160E070E08FE30E94890697
:1006500040E050E160E070E085ED0E94890640E0F6
:1006600050E160E070E080E80E94890640E050E1DF
:1006700060E070E081E80E94890640E050E160E0BF
:1006800070E080E50E94890640E050E160E070E0A3
:1006900089ED0E94890640E050E160E070E081E26F
:1006A0000E94890640E050E160E070E080E20E9434
:1006B000890640E050E160E070E082E00E94890637
:1006C00040E050E160E070E08BED0E94890640E080
:1006D00050E160E070E080E30E94890640E050E174
:1006E00060E070E08DEA0E94890640E050E160E041
:1006F00070E080E00E94890640E050E160E070E038
:1007000084EA0E94890640E050E160E070E086EAF9
:100710000E94890640E050E160E070E08FEA0E94AC
:100720008906089540E050E160E070E080550E9445
:1007300089060895CF93C82F40E050E160E070E053
:100740008F700E9489068C2F859585958595859556
:1007500040E050E160E070E080610E948906CF9146
:100760000895CF93C62F0E9492038C2F0E949A0364
:10077000CF910895CF93DF9360E00E94B103C0E072
:10078000D0E008C040E052E160E070E080E00E940C
:1007900089062196C038D105ACF3DF91CF91089539
:1007A000CF93DF9360E080E00E94B103C0E0D0E02F
:1007B00007C08C2F0E94BA038C2F0E9492032196AF
:1007C000C830D105B4F3DF91CF9108951F93CF9333
:1007D000DF93182FC0E0D0E015C0E12FF0E0B09714
:1007E000EE0FFF1FEE0FFF1FEE0FFF1FEC0FFD1FA1
:1007F000E059FF4F849140E052E160E070E00E94D8
:1008000089062196C830D10544F3DF91CF911F911D
:100810000895CF93DF93EC0140E050E160E070E099
:1008200080E20E94890640E050E160E070E082E0F2
:100830000E94890603C00E94E603219688818111E7
:10084000FACFDF91CF910895CF93DF93EC01988594
:100850009330B9F48B858823A1F08A8587308CF496
:100860006EE60E94B1038EEA91E00E9409048A8537
:100870008F5F8A87EC85FD85868197819D878C8730
:1008800018C09230B1F48B85882399F08A85833023
:1008900084F06EE60E94B1038EEA91E00E940904A2
:1008A0008A8581508A87EC85FD85848195819D8725
:1008B0008C876EE68A850E94B10381EB91E00E94ED
:1008C0000904DF91CF910895EF92FF920F931F9348
:1008D000CF93DF937C018B018BE090E00E94BB06FD
:1008E000EC01C7010E94DC07998788871983088378
:1008F0001B821A821D821C821F821E82CE01DF9102
:10090000CF911F910F91FF90EF900895CF93DF93B8
:10091000EC01CB01BE010E946404EA81FB813097A7
:1009200021F49B838A830DC0F9012681378121152B
:100930003105D1F797838683DC011596FC93EE93FE
:100940001497DF91CF910895DF92EF92FF920F936A
:100950001F93CF93DF937C018B01D42EC0E0D0E0B6
:100960000BC0FE01EE0FFF1FE00FF11F60817181D0
:10097000C7010E94860421968D2D0D2C000C990B29
:10098000C817D90774F3DF91CF911F910F91FF9092
:10099000EF90DF9008950F931F93CF93DF93EC01B7
:1009A0000E94D00362E380E00E94B10388859985AC
:1009B0000E9409040A80DB81C02D01E010E00EC016
:1009C0006AE081E0800F0E94B103888599850E94CA
:1009D00009040E80DF81C02D0F5F1F4F209781F724
:1009E000DF91CF911F910F910895EF92FF920F9396
:1009F0001F93CF93DF93CDB7DEB764970FB6F8940C
:100A0000DEBF0FBECDBF7C0160E070E084EB91E003
:100A10000E9464048C018AE0E4E1F1E0DE011196B9
:100A200001900D928A95E1F745E0BE016F5F7F4F1F
:100A3000C8010E94A404F80182819381F70195877F
:100A400084878AE0EEE1F1E0DE011B9601900D92D1
:100A50008A95E1F745E0BE01655F7F4FF80182812D
:100A600093810E94A404C8010E94CB0464960FB62F
:100A7000F894DEBF0FBECDBFDF91CF911F910F91D4
:100A8000FF90EF9008950F931F93CF93DF93DC01B6
:100A90001E962C911E97211104C021E01E962C93C6
:100AA00027C0FC012185222319F1EC01048515855D
:100AB0006CED71E0D80118968D919C9119970E9468
:100AC000F607892B49F4D801ED91FC91FD87EC875D
:100AD000808191819D878C878C859D850E94CB0428
:100AE000EC85FD85828193819D878C8782E08A8752
:100AF000DF91CF911F910F910895CF93DF93EC0178
:100B000040E050E160E074E180E10E94890660E02D
:100B100070E180E094E10E948E0690E00E949102D4
:100B20009983888360E070E180E094E10E948E0602
:100B300090E00E9491029B838A8360E070E180E0F4
:100B400094E10E948E0690E09D838C8360E070E1CA
:100B500080E094E10E948E0690E09F838E83CE0118
:100B60000E94A702CE010E94EB028987CE010E945B
:100B70002404CE010E944305DF91CF91089581B3F3
:100B8000806181BB81E880938B0089E080938A003B
:100B900010928500109284000895CF93DF93CDB713
:100BA000DEB7A5970FB6F894DEBF0FBECDBF0E948B
:100BB000BF058FE190E00E945F060E9478060E94C8
:100BC0007F060E94F702CE0101960E947E020E94DB
:100BD000D003CE0101960E94F5040E9453060E94A4
:100BE0000302CE0101960E947D0560E070E0CE0117
:100BF00040960E9424028B891F928F9301EE11E090
:100C00001F930F930E9406088C891F928F931F9346
:100C10000F930E94060861E070E0CE014B960E949F
:100C200024028BE0FE017B96DE01509601900D922E
:100C30008A95E1F78B891F928F931F930F930E94E0
:100C400006088C891F928F931F930F930E940608AA
:100C500062E070E0CE014B960E9424028BE0FE0120
:100C60007B96DE01509601900D928A95E1F78B8973
:100C70001F928F931F930F930E9406088C891F92D7
:100C80008F931F930F930E9406080FB6F894DEBF50
:100C90000FBECDBFA6CF88B38F7E88BB089588B323
:100CA000806188BB089580EB87BB0E944F0681E579
:100CB0008DB908958FB9779BFECF8FB1089590BD00
:100CC00089B988E18AB98EE880BD08955D9BFECF21
:100CD0008CB90895CF93C82F8A3019F48DE00E9403
:100CE00066068C2F0E94660680E090E0CF91089502
:100CF00086E091E09093ED018093EC01089585B733
:100D0000806885BF80B7877E80BF80B7806280BFE4
:100D10000895FA01E60FF71F80830895860F971F45
:100D2000FC018081089597FB072E16F4009407D0EC
:100D300077FD09D00E94A70607FC05D03EF49095E8
:100D400081959F4F0895709561957F4F0895AA1BD7
:100D5000BB1B51E107C0AA1FBB1FA617B70710F0A6
:100D6000A61BB70B881F991F5A95A9F780959095D8
:100D7000BC01CD0108950F931F93CF93DF93823071
:100D8000910510F482E090E0E091E801F091E90132
:100D900020E030E0A0E0B0E0309719F140815181CF
:100DA0000281138148175907C8F08417950769F421
:100DB000109731F012960C93129713961C9327C03C
:100DC0000093E8011093E90122C02115310519F0C3
:100DD0004217530718F49A01BD01EF01DF01F80132
:100DE000DBCF21153105F9F0281B390B24303105F3
:100DF00080F48A819B816115710521F0FB01938349
:100E0000828304C09093E9018093E801FE01329649
:100E100044C0FE01E20FF31F8193919322503109E8
:100E2000398328833AC02091E6013091E701232BD2
:100E300041F420910201309103013093E7012093A6
:100E4000E60120910001309101012115310541F4A5
:100E50002DB73EB74091040150910501241B350B7D
:100E6000E091E601F091E701E217F307A0F42E1BF1
:100E70003F0B2817390778F0AC014E5F5F4F2417FE
:100E8000350748F04E0F5F1F5093E7014093E6018E
:100E90008193919302C0E0E0F0E0CF01DF91CF9128
:100EA0001F910F910895CF93DF93009709F481C0AC
:100EB000FC01329713821282A091E801B091E901FE
:100EC000109781F420813181820F931F2091E601D8
:100ED0003091E7012817390751F5F093E701E093C6
:100EE000E60167C0ED0120E030E0CE17DF0740F4F7
:100EF0004A815B819E0141155105F1F0EA01F5CF70
:100F0000D383C28340815181840F951FC817D907AD
:100F100059F488819981840F951F0296918380836B
:100F20008A819B81938382832115310529F4F09373
:100F3000E901E093E8013DC0E901FB83EA834991BF
:100F40005991C40FD51FEC17FD0761F48081918181
:100F5000840F951F0296E90199838883828193818A
:100F60009B838A83E0E0F0E012968D919C91139729
:100F7000009719F0FD01DC01F7CF8D919C9111973D
:100F80009D012E5F3F4F820F931F2091E60130910C
:100F9000E7012817390769F4309729F41092E9011D
:100FA0001092E80102C013821282B093E701A0936D
:100FB000E601DF91CF9108950F931F93CF93DF93B5
:100FC0008C01FC0101900020E9F7CF01801B910BFF
:100FD0000E94BB06EC01009719F0B8010E94FF07C0
:100FE000CE01DF91CF911F910F910895FB01DC019C
:100FF0008D91019080190110D9F3990B0895FB018F
:10100000DC0101900D920020E1F70895A0E0B0E02E
:10101000ECE0F8E00C94BD0AAE014B5F5F4FFA01C3
:1010200061917191AF018091EC019091ED010E946D
:101030001C08E2E00C94D90AABE0B0E0E2E2F8E090
:101040000C94AD0A6C017B018A01FC0117821682A7
:10105000838181FFCCC1CE0101963C01F6019381D1
:10106000F70193FD859193FF81917F01882309F416
:10107000BAC1853239F493FD859193FF81917F0147
:10108000853229F4B60190E00E94130AE7CF912C33
:10109000212C312CFFE1F315D8F08B3279F038F4A4
:1010A000803279F08332A1F4232D20611DC08D326E
:1010B00061F0803369F4232D216016C0832D826096
:1010C000382EE32DE4603E2E2AC0F32DF8601DC0BB
:1010D00037FC2DC020ED280F2A3040F08E32B9F4B5
:1010E00036FC81C1232D2064322E19C036FE06C085
:1010F0008AE0989E200D1124922E11C0EAE02E9EC7
:10110000200D1124222EF32DF0623F2E08C08C36C4
:1011100021F4832D8068382E02C0883641F4F7010F
:1011200093FD859193FF81917F018111B3CF982F1A
:101130009F7D9554933028F40C5F1F4F9FE3998354
:101140000DC0833631F0833771F0833509F059C013
:1011500021C0F801808189830E5F1F4F882483940A
:10116000912C530113C02801F2E04F0E511CF801DD
:10117000A080B18036FE03C0692D70E002C06FEF21
:101180007FEFC5010E94080A4C018201F32DFF7711
:101190003F2E16C0280122E0420E511CF801A0800B
:1011A000B18036FE03C0692D70E002C06FEF7FEFA3
:1011B000C5010E94FD094C01F32DF0683F2E82010C
:1011C00033FC1BC0822D90E088169906B0F4B6015E
:1011D00080E290E00E94130A2A94F4CFF50137FCD4
:1011E000859137FE81915F01B60190E00E94130A5C
:1011F00021102A9421E0821A91088114910471F738
:10120000E8C0843611F0893641F5F80137FE07C091
:1012100060817181828193810C5F1F4F08C0608162
:101220007181072E000C880B990B0E5F1F4FF32D59
:10123000FF763F2E97FF09C0909580957095619538
:101240007F4F8F4F9F4FF0683F2E2AE030E0A30181
:101250000E944F0A882E861845C0853731F4232D09
:101260002F7EB22E2AE030E025C0932D997FB92E33
:101270008F36C1F018F4883579F0B5C0803719F091
:10128000883721F0B0C0E92FE061BE2EB4FE0DC05A
:10129000FB2DF460BF2E09C034FE0AC0292F266042
:1012A000B22E06C028E030E005C020E130E002C0E8
:1012B00020E132E0F801B7FE07C0608171818281D0
:1012C00093810C5F1F4F06C06081718180E090E0C8
:1012D0000E5F1F4FA3010E944F0A882E8618FB2D18
:1012E000FF773F2E36FE0DC0232D2E7FA22E8914B0
:1012F00058F434FE0BC032FC09C0832D8E7EA82E1C
:1013000005C0B82CA32C03C0B82C01C0B92CA4FE76
:101310000FC0FE01E80DF11D8081803321F49A2D6C
:10132000997EA92E09C0A2FE06C0B394B39404C04E
:101330008A2D867809F0B394A3FC11C0A0FE06C0E4
:10134000B21488F4280C922C9B180EC0B21460F4CE
:10135000B60180E290E00E94130AB394F7CFB21472
:1013600018F42B1802C0982C212CA4FE10C0B60132
:1013700080E390E00E94130AA2FE17C0A1FC03C004
:1013800088E790E002C088E590E0B6010CC08A2DA5
:10139000867859F0A1FE02C08BE201C080E2A7FC72
:1013A0008DE2B60190E00E94130A891438F4B60168
:1013B00080E390E00E94130A9A94F7CF8A94F30195
:1013C000E80DF11D8081B60190E00E94130A8110A2
:1013D000F5CF222009F442CEB60180E290E00E94CF
:1013E000130A2A94F6CFF6018681978102C08FEF07
:1013F0009FEF2B96E2E10C94C90AFC010590615025
:1014000070400110D8F7809590958E0F9F1F08951A
:10141000FC016150704001900110D8F780959095C3
:101420008E0F9F1F08950F931F93CF93DF93FB01A0
:10143000238121FD03C08FEF9FEF2CC022FF16C038
:1014400046815781248135814217530744F4A08196
:10145000B1819D012F5F3F4F318320838C93268183
:1014600037812F5F3F4F3783268314C08B01EC01F8
:10147000FB010084F185E02D0995892BE1F6D80167
:1014800016968D919C911797019617969C938E9323
:101490001697CE01DF91CF911F910F910895FA0118
:1014A000AA27283051F1203181F1E8946F936E7FA3
:1014B0006E5F7F4F8F4F9F4FAF4FB1E03ED0B4E094
:1014C0003CD0670F781F891F9A1FA11D680F791FD5
:1014D0008A1F911DA11D6A0F711D811D911DA11DE6
:1014E00020D009F468943F912AE0269F11243019F6
:1014F000305D3193DEF6CF010895462F4770405D91
:101500004193B3E00FD0C9F7F6CF462F4F70405D3F
:101510004A3318F0495D31FD4052419302D0A9F79A
:10152000EACFB4E0A6959795879577956795BA9594
:10153000C9F700976105710508959B01AC010A2E5A
:1015400006945795479537952795BA95C9F7620F31
:10155000731F841F951FA01D08952F923F924F92D5
:101560005F926F927F928F929F92AF92BF92CF9233
:10157000DF92EF92FF920F931F93CF93DF93CDB73C
:10158000DEB7CA1BDB0B0FB6F894DEBF0FBECDBFB4
:1015900009942A88398848885F846E847D848C8485
:1015A0009B84AA84B984C884DF80EE80FD800C818E
:1015B0001B81AA81B981CE0FD11D0FB6F894DEBF71
:0C15C0000FBECDBFED010895F894FFCFE1
:1015CC000000F001200000000002000000006A068C
:1015DC0000000000B901C001C701CE01D501B9015D
:1015EC00C001C701CE01DC014D656E7520706F69BD
:1015FC006E7465723A202564200A00427574746F0B
:10160C006E3A202564200A004A6F79737469636B03
:10161C0020646972656374696F6E3A202564200AD0
:10162C00004A6F79737469636B20783A20256420C3
:10163C002525200A004A6F79737469636B20793A07
:10164C00202564202525200A00536C6964657220CE
:10165C006C6566743A202564200A00536C696465D5
:10166C00722072696768743A202564200A00202071
:10167C00003C2D00486F6D65004D656E7520310086
:10168C004D656E752032004D656E752033004D65CD
:10169C006E752034004D656E752035004261636BAC
:0616AC000025780A000091
:00000001FF
