S01100006279676765726E56352E737265639A
S11300000C94B4010C94D1010C94D1010C94D10141
S11300100C94D1010C94D1010C94D1010C94D10114
S11300200C94D1010C94D1010C94D1010C94D10104
S11300300C94D1010C94D1010C94D1010C94D101F4
S11300400C94D1010C94D1010C94D1010C94D101E4
S11300500C94D1010C94D1010C94D1010C94D101D4
S11300600C94D1010C94D1010C94D1010C94D101C4
S1130070000000000000000000065F5F06000000B2
S11300800007070007070000147F7F147F7F140018
S1130090242E6B6B3A120000466630180C66620020
S11300A0307A4F5D377A48000407030000000000EF
S11300B0001C3E63410000000041633E1C00000040
S11300C0082A3E1C1C3E2A0808083E3E0808000078
S11300D000A0E0600000000008080808080800000C
S11300E000006060000000006030180C060301008E
S11300F03E7F594D7F3E000042427F7F40400000DA
S1130100627359496F660000226349497F360000D3
S1130110181C16137F7F1000276745457D390000A2
S11301203C7E4B4979300000036371190F070000CE
S1130130367F49497F360000064F49693F1E00005B
S113014000006C6C0000000000A0EC6C00000000DB
S1130150081C366341000000141414141414000025
S1130160004163361C080000020351590F060000C9
S11301703E7F415D5D1F1E007C7E13137E7C00006C
S1130180417F7F49497F36001C3E63414163220021
S1130190417F7F41637F1C00417F7F495D41630054
S11301A0417F7F491D0103001C3E6341517372006E
S11301B07F7F08087F7F000000417F7F41000000AF
S11301C0307040417F3F0100417F7F081C7763000E
S11301D0417F7F41406070007F7F060C067F7F0077
S11301E07F7F060C187F7F001C3E6341633E1C002A
S11301F0417F7F49090F06001E3F21717F5E000089
S1130200417F7F19396F460026674D597B320000C4
S113021003417F7F410300007F7F40407F7F0000D8
S11302201F3F60603F1F00007F7F3018307F7F00DA
S113023063771C081C776300074F78784F0700002A
S11302406773594D47637100007F7F41410000008F
S11302500103060C183060000041417F7F0000005C
S1130260080C0603060C0800808080808080808053
S11302700000030704000000207454543C7840003C
S1130280413F7F44447C3800387C44446C2800005F
S1130290307848493F7F4000387C54545C18000053
S11302A0487E7F490302000098BCA4A4F87C0400A3
S11302B0417F7F08047C780000447D7D400000007D
S11302C040C484FD7D000000417F7F10386C4400F1
S11302D000417F7F400000007C7C0C180C7C78007F
S11302E07C7C04047C780000387C44447C38000026
S11302F084FCF8A4243C1800183C24A4F8FC8400D2
S1130300447C78441C180000485C54547424000055
S113031000043E7F442400003C7C40403C7C400080
S11303201C3C60603C1C00003C7C6030607C3C00F9
S1130330446C3810386C44009CBCA0A0FC7C0000C9
S11303404C64745C4C64000008083E774141000032
S113035000000077770000004141773E0808000064
S1130360020301030203010011241FBECFEFD4E0F6
S1130370DEBFCDBF11E0A0E0B1E0EEE0FDE002C0E1
S113038005900D92A636B107D9F721E0A6E6B1E0B3
S113039001C01D92AC36B207E1F70E941B030C9416
S11303A085060C94000040E050E160E070E08EEAC5
S11303B00E94A20340E050E160E070E081EA0E9404
S11303C0A20340E050E160E070E08AED0E94A203E5
S11303D040E050E160E070E082E10E94A20340E06E
S11303E050E160E070E088EC0E94A20340E050E13C
S11303F060E070E088EA0E94A20340E050E160E01F
S113040070E08FE30E94A20340E050E160E070E0FE
S113041085ED0E94A20340E050E160E070E080E8D6
S11304200E94A20340E050E160E070E081E80E9495
S1130430A20340E050E160E070E080E50E94A20386
S113044040E050E160E070E089ED0E94A20340E0EA
S113045050E160E070E081E20E94A20340E050E1DC
S113046060E070E080E20E94A20340E050E160E0BE
S113047070E082E00E94A20340E050E160E070E09E
S11304808BED0E94A20340E050E160E070E080E365
S11304900E94A20340E050E160E070E08DEA0E9417
S11304A0A20340E050E160E070E080E00E94A2031B
S11304B040E050E160E070E084EA0E94A20340E082
S11304C050E160E070E086EA0E94A20340E050E15F
S11304D060E070E08FEA0E94A20308950F931F93D7
S11304E0CF93DF93C82F40E050E160E070E080EBF1
S11304F08C0F0E94A2030C2E000CDD0BCE01805544
S11305009F4F9F938F9301E611E01F930F930E94D7
S1130510A703CB59DE4FDF93CF931F930F930E9412
S1130520A7038DB79EB708960FB6F8949EBF0FBE6B
S11305308DBFDF91CF911F910F910895CF93C82F55
S113054040E050E160E070E08F700E94A2038C2FC5
S1130550859585958595859540E050E160E070E04E
S113056080610E94A203CF910895CF93C62F0E9469
S11305706E028C2F0E949E02CF910895CF93DF9339
S113058060E00E94B502C0E0D0E008C040E052E163
S113059060E070E080E00E94A2032196C038D1059B
S11305A0ACF3DF91CF910895CF93DF9360E080E0C7
S11305B00E94B502C0E0D0E007C08C2F0E94BE02AA
S11305C08C2F0E946E022196C830D105B4F3DF91BE
S11305D0CF9108951F93CF93DF93182FC0E0D0E0FD
S11305E015C0E12FF0E0B097EE0FFF1FEE0FFF1FD5
S11305F0EE0FFF1FEC0FFD1FE059FF4F849140E009
S113060052E160E070E00E94A2032196C830D10557
S113061044F3DF91CF911F91089581B3806181BB31
S113062081E880938B0089E080938A001092850092
S11306301092840008950E940D038FE190E00E94BF
S113064078030E9491030E9498030E94D30180E0E2
S113065090E001C00196813024E09207DCF30E940F
S1130660D40260E080E00E94B50200E010E01EC009
S11306706C2F802F0E94B5020115110519F0073067
S1130680110519F48FE50E94EA02209719F0C83782
S1130690D10519F48CE70E94EA02219602C0C0E059
S11306A0D0E0C038D10524F30F5F1F4F0830110587
S11306B0B4F362E381E00E94B50288E40E94EA0296
S11306C08FE40E94EA028DE40E94EA0285E40E941B
S11306D0EA0280E090E008C036E646EE20E03150C1
S11306E040402040E1F7019688309105ACF3F1CF0A
S11306F090BD89B988E18AB98EE880BD08955D9B73
S1130700FECF8CB90895CF93C82F8A3019F48DE0A9
S11307100E947F038C2F0E947F0380E090E0CF91A2
S1130720089580E091E090936901809368010895B1
S113073085B7806885BF80B7877E80BF80B78062B9
S113074080BF0895FA01E60FF71F80830895A0E0A3
S1130750B0E0EDEAF3E00C945E06AE014B5F5F4F50
S1130760FA0161917191AF018091680190916901E1
S11307700E94BD03E2E00C947A06ABE0B0E0E3EC47
S1130780F3E00C944E066C017B018A01FC01178294
S11307901682838181FFCCC1CE0101963C01F60112
S11307A09381F70193FD859193FF81917F018823C4
S11307B009F4BAC1853239F493FD859193FF81918F
S11307C07F01853229F4B60190E00E94B405E7CF99
S11307D0912C212C312CFFE1F315D8F08B3279F0D8
S11307E038F4803279F08332A1F4232D20611DC0C6
S11307F08D3261F0803369F4232D216016C0832D7E
S11308008260382EE32DE4603E2E2AC0F32DF8607A
S11308101DC037FC2DC020ED280F2A3040F08E3249
S1130820B9F436FC81C1232D2064322E19C036FE62
S113083006C08AE0989E200D1124922E11C0EAE091
S11308402E9E200D1124222EF32DF0623F2E08C07F
S11308508C3621F4832D8068382E02C0883641F40A
S1130860F70193FD859193FF81917F018111B3CFAE
S1130870982F9F7D9554933028F40C5F1F4F9FE36E
S113088099830DC0833631F0833771F0833509F0D5
S113089059C021C0F801808189830E5F1F4F8824CD
S11308A08394912C530113C02801F2E04F0E511C84
S11308B0F801A080B18036FE03C0692D70E002C04B
S11308C06FEF7FEFC5010E94A9054C018201F32D52
S11308D0FF773F2E16C0280122E0420E511CF8017A
S11308E0A080B18036FE03C0692D70E002C06FEFB6
S11308F07FEFC5010E949E054C01F32DF0683F2E49
S1130900820133FC1BC0822D90E088169906B0F456
S1130910B60180E290E00E94B4052A94F4CFF50178
S113092037FC859137FE81915F01B60190E00E940A
S1130930B40521102A9421E0821A910881149104AB
S113094071F7E8C0843611F0893641F5F80137FEB5
S113095007C060817181828193810C5F1F4F08C041
S113096060817181072E000C880B990B0E5F1F4F5D
S1130970F32DFF763F2E97FF09C0909580957095D3
S113098061957F4F8F4F9F4FF0683F2E2AE030E0F4
S1130990A3010E94F005882E861845C0853731F4DE
S11309A0232D2F7EB22E2AE030E025C0932D997F8F
S11309B0B92E8F36C1F018F4883579F0B5C0803778
S11309C019F0883721F0B0C0E92FE061BE2EB4FEE3
S11309D00DC0FB2DF460BF2E09C034FE0AC0292FC0
S11309E02660B22E06C028E030E005C020E130E0E9
S11309F002C020E132E0F801B7FE07C060817181D6
S1130A00828193810C5F1F4F06C06081718180E0F9
S1130A1090E00E5F1F4FA3010E94F005882E8618F8
S1130A20FB2DFF773F2E36FE0DC0232D2E7FA22EE9
S1130A30891458F434FE0BC032FC09C0832D8E7E19
S1130A40A82E05C0B82CA32C03C0B82C01C0B92C07
S1130A50A4FE0FC0FE01E80DF11D8081803321F456
S1130A609A2D997EA92E09C0A2FE06C0B394B39410
S1130A7004C08A2D867809F0B394A3FC11C0A0FEAB
S1130A8006C0B21488F4280C922C9B180EC0B21421
S1130A9060F4B60180E290E00E94B405B394F7CF0D
S1130AA0B21418F42B1802C0982C212CA4FE10C0E8
S1130AB0B60180E390E00E94B405A2FE17C0A1FC39
S1130AC003C088E790E002C088E590E0B6010CC05E
S1130AD08A2D867859F0A1FE02C08BE201C080E223
S1130AE0A7FC8DE2B60190E00E94B405891438F4A5
S1130AF0B60180E390E00E94B4059A94F7CF8A94FB
S1130B00F301E80DF11D8081B60190E00E94B40567
S1130B108110F5CF222009F442CEB60180E290E0A4
S1130B200E94B4052A94F6CFF6018681978102C00B
S1130B308FEF9FEF2B96E2E10C946A06FC0105907F
S1130B40615070400110D8F7809590958E0F9F1FCB
S1130B500895FC016150704001900110D8F7809510
S1130B6090958E0F9F1F08950F931F93CF93DF933C
S1130B70FB01238121FD03C08FEF9FEF2CC022FFD7
S1130B8016C046815781248135814217530744F4A6
S1130B90A081B1819D012F5F3F4F318320838C93CE
S1130BA0268137812F5F3F4F3783268314C08B0103
S1130BB0EC01FB010084F185E02D0995892BE1F618
S1130BC0D80116968D919C911797019617969C9330
S1130BD08E931697CE01DF91CF911F910F910895B7
S1130BE0FA01AA27283051F1203181F1E8946F935A
S1130BF06E7F6E5F7F4F8F4F9F4FAF4FB1E03ED000
S1130C00B4E03CD0670F781F891F9A1FA11D680F9D
S1130C10791F8A1F911DA11D6A0F711D811D911DD0
S1130C20A11D20D009F468943F912AE0269F112445
S1130C303019305D3193DEF6CF010895462F4770A9
S1130C40405D4193B3E00FD0C9F7F6CF462F4F7004
S1130C50405D4A3318F0495D31FD4052419302D062
S1130C60A9F7EACFB4E0A695979587957795679508
S1130C70BA95C9F700976105710508959B01AC0108
S1130C800A2E06945795479537952795BA95C9F72F
S1130C90620F731F841F951FA01D08952F923F920A
S1130CA04F925F926F927F928F929F92AF92BF9278
S1130CB0CF92DF92EF92FF920F931F93CF93DF9324
S1130CC0CDB7DEB7CA1BDB0B0FB6F894DEBF0FBE81
S1130CD0CDBF09942A88398848885F846E847D84CE
S1130CE08C849B84AA84B984C884DF80EE80FD80D0
S1130CF00C811B81AA81B981CE0FD11D0FB6F89446
S1110D00DEBF0FBECDBFED010895F894FFCF06
S1130D0E00000002000000008303000000004A6F90
S1130D1E79737469636B20783A2025642025252025
S1130D2E0A004A6F79737469636B20793A202564DB
S1130D3E202525200A00536C69646572206C656653
S1130D4E743A202564202525200A00536C696465B5
S1130D5E722072696768743A202564202525200A5A
S1090D6E0025640A0000E8
S9030000FC
