S01100006279676765726E56352E737265639A
S11300000C9438000C9455000C9455000C94550035
S11300100C9455000C9455000C9455000C94550008
S11300200C9455000C9455000C9455000C945500F8
S11300300C9455000C9455000C9455000C945500E8
S11300400C9455000C9455000C9455000C945500D8
S11300500C9455000C9455000C9455000C945500C8
S11300600C9455000C9455000C9455000C945500B8
S113007011241FBECFEFD4E0DEBFCDBF11E0A0E05E
S1130080B1E0E2E2F9E002C005900D92A438B107B4
S1130090D9F721E0A4E8B1E001C01D92AA38B20763
S11300A0E1F70E948B000C948F040C940000CF9312
S11300B0DF9382E191E00E9434010E940E010E94CC
S11300C01301C0E0D0E010C00E940E018883DF93CA
S11300D0CF9388E291E09F938F930E941E01249610
S11300E00F900F900F900F90CF3F8FE1D80760F3E0
S11300F01F921F921F921F928BE291E09F938F9306
S11301000E941E010F900F900F900F900F900F9070
S1130110DF91CF9108958FE190E00E9498000E94B2
S1130120B1000E94B8000E94570080E090E008955A
S113013090BD89B988E18AB98EE880BD08955D9B38
S1130140FECF8CB90895CF93C82F8A3019F48DE06F
S11301500E949F008C2F0E949F0080E090E0CF912E
S1130160089584E091E09093870180938601089537
S113017085B7806885BF80B7877E80BF80B780627F
S113018080BF08958F929F92AF92BF92CF92DF92D9
S1130190EF92FF92CF93DF93EC01688179818A819A
S11301A09B81611571058105910521F464E279ED66
S11301B08BE597E02DE133EF41E050E00E94F50339
S11301C049015A019B01AC01A7EAB1E40E9414045D
S11301D06B017C01ACEEB4EFA50194010E942204F2
S11301E0DC01CB018C0D9D1DAE1DBF1DB7FF03C0EF
S11301F00197A109B04888839983AA83BB839F7719
S1130200DF91CF91FF90EF90DF90CF90BF90AF90B0
S11302109F908F9008950E94C200089580E091E01D
S11302200E94C2000895A0E0B0E080930001909382
S11302300101A0930201B09303010895A0E0B0E08E
S1130240E4E2F1E00C943704AE014B5F5F4FFA0136
S113025061917191AF0180918601909187010E9413
S11302606401E2E00C9453040F931F93CF93DF9344
S1130270E0918601F0918701238121FF1BC08C014D
S1130280D0E0C0E0F80181918F0160918601709106
S11302908701DB011896ED91FC911997882331F0C1
S11302A00995892B79F3DFEFCFEFECCF8AE009953D
S11302B0892B19F08FEF9FEF02C08D2F9C2FDF91B8
S11302C0CF911F910F910895ABE0B0E0EAE6F1E021
S11302D00C9427046C017B018A01FC0117821682AD
S11302E0838181FFCCC1CE0101963C01F60193814B
S11302F0F70193FD859193FF81917F01882309F490
S1130300BAC1853239F493FD859193FF81917F01C0
S1130310853229F4B60190E00E945B03E7CF912C6B
S1130320212C312CFFE1F315D8F08B3279F038F41D
S1130330803279F08332A1F4232D20611DC08D32E7
S113034061F0803369F4232D216016C0832D82600F
S1130350382EE32DE4603E2E2AC0F32DF8601DC034
S113036037FC2DC020ED280F2A3040F08E32B9F42E
S113037036FC81C1232D2064322E19C036FE06C0FE
S11303808AE0989E200D1124922E11C0EAE02E9E40
S1130390200D1124222EF32DF0623F2E08C08C363E
S11303A021F4832D8068382E02C0883641F4F70189
S11303B093FD859193FF81917F018111B3CF982F94
S11303C09F7D9554933028F40C5F1F4F9FE39983CE
S11303D00DC0833631F0833771F0833509F059C08D
S11303E021C0F801808189830E5F1F4F8824839484
S11303F0912C530113C02801F2E04F0E511CF80157
S1130400A080B18036FE03C0692D70E002C06FEF9A
S11304107FEFC5010E9450034C018201F32DFF7749
S11304203F2E16C0280122E0420E511CF801A08084
S1130430B18036FE03C0692D70E002C06FEF7FEF1C
S1130440C5010E9445034C01F32DF0683F2E820143
S113045033FC1BC0822D90E088169906B0F4B601D7
S113046080E290E00E945B032A94F4CFF50137FC0C
S1130470859137FE81915F01B60190E00E945B0394
S113048021102A9421E0821A91088114910471F7B1
S1130490E8C0843611F0893641F5F80137FE07C00B
S11304A060817181828193810C5F1F4F08C06081DC
S11304B07181072E000C880B990B0E5F1F4FF32DD3
S11304C0FF763F2E97FF09C09095809570956195B2
S11304D07F4F8F4F9F4FF0683F2E2AE030E0A301FB
S11304E00E949703882E861845C0853731F4232D42
S11304F02F7EB22E2AE030E025C0932D997FB92EAD
S11305008F36C1F018F4883579F0B5C0803719F00A
S1130510883721F0B0C0E92FE061BE2EB4FE0DC0D3
S1130520FB2DF460BF2E09C034FE0AC0292F2660BB
S1130530B22E06C028E030E005C020E130E002C061
S113054020E132E0F801B7FE07C060817181828149
S113055093810C5F1F4F06C06081718180E090E041
S11305600E5F1F4FA3010E949703882E8618FB2D50
S1130570FF773F2E36FE0DC0232D2E7FA22E891429
S113058058F434FE0BC032FC09C0832D8E7EA82E95
S113059005C0B82CA32C03C0B82C01C0B92CA4FEF0
S11305A00FC0FE01E80DF11D8081803321F49A2DE6
S11305B0997EA92E09C0A2FE06C0B394B39404C0C8
S11305C08A2D867809F0B394A3FC11C0A0FE06C05E
S11305D0B21488F4280C922C9B180EC0B21460F448
S11305E0B60180E290E00E945B03B394F7CFB214AB
S11305F018F42B1802C0982C212CA4FE10C0B601AC
S113060080E390E00E945B03A2FE17C0A1FC03C03C
S113061088E790E002C088E590E0B6010CC08A2D1E
S1130620867859F0A1FE02C08BE201C080E2A7FCEB
S11306308DE2B60190E00E945B03891438F4B601A0
S113064080E390E00E945B039A94F7CF8A94F301CD
S1130650E80DF11D8081B60190E00E945B038110DA
S1130660F5CF222009F442CEB60180E290E00E9448
S11306705B032A94F6CFF6018681978102C08FEF3F
S11306809FEF2B96E2E10C944304FC01059061502A
S113069070400110D8F7809590958E0F9F1F089594
S11306A0FC016150704001900110D8F7809590953D
S11306B08E0F9F1F08950F931F93CF93DF93FB011A
S11306C0238121FD03C08FEF9FEF2CC022FF16C0B2
S11306D046815781248135814217530744F4A08110
S11306E0B1819D012F5F3F4F318320838C932681FD
S11306F037812F5F3F4F3783268314C08B01EC0172
S1130700FB010084F185E02D0995892BE1F6D801E0
S113071016968D919C911797019617969C938E939C
S11307201697CE01DF91CF911F910F910895FA0191
S1130730AA27283051F1203181F1E8946F936E7F1C
S11307406E5F7F4F8F4F9F4FAF4FB1E03ED0B4E00D
S11307503CD0670F781F891F9A1FA11D680F791F4E
S11307608A1F911DA11D6A0F711D811D911DA11D5F
S113077020D009F468943F912AE0269F112430196F
S1130780305D3193DEF6CF010895462F4770405D0A
S11307904193B3E00FD0C9F7F6CF462F4F70405DB9
S11307A04A3318F0495D31FD4052419302D0A9F714
S11307B0EACFB4E0A6959795879577956795BA950E
S11307C0C9F700976105710508959B01AC010A2ED4
S11307D006945795479537952795BA95C9F7620FAB
S11307E0731F841F951FA01D0895052E97FB1EF4EB
S11307F000940E940C0457FD07D00E945E0407FC7D
S113080003D04EF40C940C045095409530952195EA
S11308103F4F4F4F5F4F0895909580957095619528
S11308207F4F8F4F9F4F08950E948004A59F900D86
S1130830B49F900DA49F800D911D11240895B7FFBE
S11308400C9414040E941404821B930B08952F9299
S11308503F924F925F926F927F928F929F92AF924C
S1130860BF92CF92DF92EF92FF920F931F93CF9399
S1130870DF93CDB7DEB7CA1BDB0B0FB6F894DEBF30
S11308800FBECDBF09942A88398848885F846E8456
S11308907D848C849B84AA84B984C884DF80EE80A0
S11308A0FD800C811B81AA81B981CE0FD11D0FB6A9
S11308B0F894DEBF0FBECDBFED010895A1E21A2E5C
S11308C0AA1BBB1BFD010DC0AA1FBB1FEE1FFF1FF0
S11308D0A217B307E407F50720F0A21BB30BE40B40
S11308E0F50B661F771F881F991F1A9469F7609587
S11308F07095809590959B01AC01BD01CF01089541
S1130900A29FB001B39FC001A39F700D811D11244C
S1130910911DB29F700D811D1124911D0895F894AD
S1050920FFCF03
S1130922010000000000000200000000A30000001B
S113093200005374617274696E67205352414D20F2
S1130942746573742E2E2E002564005352414D207B
S11309527465737420636F6D706C6574656420775D
S1130962697468200A253464206572726F72732078
S1130972696E20777269746520706861736520619D
S11309826E64200A253464206572726F7273206962
S11309926E2072657472696576616C207068617329
S10709A2650A0A00D4
S9030000FC
