S01100006279676765726E56352E737265639A
S11300000C94B4010C94D1010C94D1010C94D10141
S11300100C94D1010C94D1010C94D1010C94D10114
S11300200C94D1010C94D1010C94D1010C94D10104
S11300300C94D1010C94D1010C94D1010C94D101F4
S11300400C94D1010C94D1010C94D1010C94D101E4
S11300500C94D1010C94D1010C94D1010C94D101D4
S11300600C94D1010C94D1010C94D1010C94D101C4
S1130070000000000000000000065F5F06000000B2
S11300800007070007070000147F7F147F7F140018
S1130090242E6B6B3A120000466630180C66620020
S11300A0307A4F5D377A48000407030000000000EF
S11300B0001C3E63410000000041633E1C00000040
S11300C0082A3E1C1C3E2A0808083E3E0808000078
S11300D000A0E0600000000008080808080800000C
S11300E000006060000000006030180C060301008E
S11300F03E7F594D7F3E000042427F7F40400000DA
S1130100627359496F660000226349497F360000D3
S1130110181C16137F7F1000276745457D390000A2
S11301203C7E4B4979300000036371190F070000CE
S1130130367F49497F360000064F49693F1E00005B
S113014000006C6C0000000000A0EC6C00000000DB
S1130150081C366341000000141414141414000025
S1130160004163361C080000020351590F060000C9
S11301703E7F415D5D1F1E007C7E13137E7C00006C
S1130180417F7F49497F36001C3E63414163220021
S1130190417F7F41637F1C00417F7F495D41630054
S11301A0417F7F491D0103001C3E6341517372006E
S11301B07F7F08087F7F000000417F7F41000000AF
S11301C0307040417F3F0100417F7F081C7763000E
S11301D0417F7F41406070007F7F060C067F7F0077
S11301E07F7F060C187F7F001C3E6341633E1C002A
S11301F0417F7F49090F06001E3F21717F5E000089
S1130200417F7F19396F460026674D597B320000C4
S113021003417F7F410300007F7F40407F7F0000D8
S11302201F3F60603F1F00007F7F3018307F7F00DA
S113023063771C081C776300074F78784F0700002A
S11302406773594D47637100007F7F41410000008F
S11302500103060C183060000041417F7F0000005C
S1130260080C0603060C0800808080808080808053
S11302700000030704000000207454543C7840003C
S1130280413F7F44447C3800387C44446C2800005F
S1130290307848493F7F4000387C54545C18000053
S11302A0487E7F490302000098BCA4A4F87C0400A3
S11302B0417F7F08047C780000447D7D400000007D
S11302C040C484FD7D000000417F7F10386C4400F1
S11302D000417F7F400000007C7C0C180C7C78007F
S11302E07C7C04047C780000387C44447C38000026
S11302F084FCF8A4243C1800183C24A4F8FC8400D2
S1130300447C78441C180000485C54547424000055
S113031000043E7F442400003C7C40403C7C400080
S11303201C3C60603C1C00003C7C6030607C3C00F9
S1130330446C3810386C44009CBCA0A0FC7C0000C9
S11303404C64745C4C64000008083E774141000032
S113035000000077770000004141773E0808000064
S1130360020301030203010011241FBECFEFD4E0F6
S1130370DEBFCDBF12E0A0E0B1E0E4E3F3E102C0F0
S113038005900D92A230B107D9F722E0A2E0B2E0C5
S113039001C01D92AC30B207E1F70E94CF040C9467
S11303A098090C940000CF93C82F0E94350583E070
S11303B00E9444058C2F0E94440580E00E9444055D
S11303C0C82F0E9439058C2F90E0CF910895CF93C8
S11303D0DF93D82FC62F0E94350582E00E94440582
S11303E08D2F0E9444058C2F0E9444050E943905DC
S11303F0DF91CF9108950E94350580EC0E94440559
S11304000E9439050895CF93C82F0E9435058C2F7B
S113041081680E9444050E943905CF9108950E9485
S1130420FB0189EF90E00197F1F700C000000E9402
S1130430350560E48AE20E94E70169E889E20E94E6
S1130440E70162E088E20E94E7018FE00E94D301A5
S11304508F71682F60648FE00E94E7010E94390564
S113046008950F931F93CF93DF938C01FC01608158
S1130470718176956795769567957695679581E30D
S11304800E94E701F80160816295660F607E82E355
S11304900E94E701F801628185E30E94E701C0E060
S11304A0D0E009C0F801EC0FFD1F63818C2F8A5C3A
S11304B00E94E7012196F801828190E0C817D907CC
S11304C08CF381E00E940302DF91CF911F910F9181
S11304D00895FF920F931F93CF93DF938C0181E6CE
S11304E00E94D301EC0182E60E94D301DD27CC0FE8
S11304F0DD1FCC0FDD1FCC0FDD1F82958695877025
S1130500C82BF801D183C08385E60E94D301F82E5D
S1130510F8018283C0E0D0E009C08C2F8A590E9480
S1130520D301F801EC0FFD1F838321968F2D90E0FA
S1130530C817D90794F3C801DF91CF911F910F9188
S1130540FF900895FC011182108213821282158299
S113055014821782168284E08087118682E0828763
S11305601386158614861686089540E050E160E0EF
S113057070E08EEA0E94730540E050E160E070E0B4
S113058081EA0E94730540E050E160E070E08AED8A
S11305900E94730540E050E160E070E082E10E9457
S11305A0730540E050E160E070E088EC0E94730560
S11305B040E050E160E070E088EA0E94730540E0AA
S11305C050E160E070E08FE30E94730540E050E189
S11305D060E070E085ED0E94730540E050E160E06A
S11305E070E080E80E94730540E050E160E070E054
S11305F081E80E94730540E050E160E070E080E52E
S11306000E94730540E050E160E070E089ED0E94D3
S1130610730540E050E160E070E081E20E94730500
S113062040E050E160E070E080E20E94730540E049
S113063050E160E070E082E00E94730540E050E128
S113064060E070E08BED0E94730540E050E160E0F3
S113065070E080E30E94730540E050E160E070E0E8
S11306608DEA0E94730540E050E160E070E080E0B4
S11306700E94730540E050E160E070E084EA0E946B
S1130680730540E050E160E070E086EA0E94730583
S113069040E050E160E070E08FEA0E947305089545
S11306A040E050E160E070E080550E9473050895D9
S11306B0CF93C82F40E050E160E070E08F700E945B
S11306C073058C2F859585958595859540E050E13A
S11306D060E070E080610E947305CF910895CF932C
S11306E0C62F0E9450038C2F0E945803CF91089567
S11306F0CF93DF9360E00E946F03C0E0D0E008C0B6
S113070040E052E160E070E080E00E9473052196D1
S1130710C038D105ACF3DF91CF910895CF93DF9327
S113072060E080E00E946F03C0E0D0E007C08C2F3F
S11307300E9478038C2F0E9450032196C830D10563
S1130740B4F3DF91CF9108951F93CF93DF93182FC4
S1130750C0E0D0E015C0E12FF0E0B097EE0FFF1F2E
S1130760EE0FFF1FEE0FFF1FEC0FFD1FE059FF4FB1
S1130770849140E052E160E070E00E9473052196AC
S1130780C830D10544F3DF91CF911F910895CF93E1
S1130790DF93EC0140E050E160E070E080E20E9411
S11307A0730540E050E160E070E082E00E94730570
S11307B003C00E94A403219688818111FACFDF919E
S11307C0CF910895EF92FF920F931F93CF93DF93EE
S11307D07C018B018BE090E00E947805EC01C7015D
S11307E00E94990699878887198308831B821A8235
S11307F01D821C821F821E82CE01DF91CF911F9128
S11308000F91FF90EF900895CF93DF93EC01CB010C
S1130810BE010E94E203EA81FB81309721F49B83AD
S11308208A830DC0F9012681378121153105D1F75D
S113083097838683DC011596FC93EE931497DF91DE
S1130840CF910895DF92EF92FF920F931F93CF936E
S1130850DF937C018B01D42EC0E0D0E00BC0FE01FD
S1130860EE0FFF1FE00FF11F60817181C7010E942D
S1130870040421968D2D0D2C000C990BC817D90753
S113088074F3DF91CF911F910F91FF90EF90DF9060
S113089008950F931F93CF93DF93EC010E948E036F
S11308A062E380E00E946F03888599850E94C703F4
S11308B00A80DB81C02D01E010E00EC06AE081E017
S11308C0800F0E946F03888599850E94C7030E805C
S11308D0DF81C02D0F5F1F4F209781F7DF91CF91EC
S11308E01F910F910895EF92FF920F931F93CF934F
S11308F0DF93CDB7DEB762970FB6F894DEBF0FBEB5
S1130900CDBF7C0160E070E082EB91E00E94E203E5
S11309108C0188E0E4E1F1E0DE01119601900D9292
S11309208A95E1F744E0BE016F5F7F4FC8010E94E2
S11309302204F80182819381F701958784878AE0F4
S1130940ECE1F1E0DE01199601900D928A95E1F750
S113095045E0BE01675F7F4FF801828193810E9469
S11309602204C8010E94490462960FB6F894DEBFBF
S11309700FBECDBFDF91CF911F910F91FF90EF90EC
S1130980089581B3806181BB81E880938B0089E005
S113099080938A0010928500109284000895CF936A
S11309A0DF93CDB7DEB7A5970FB6F894DEBF0FBEC1
S11309B0CDBF0E94C1048FE190E00E9449050E94CE
S11309C062050E9469050E94B502CE0101960E944B
S11309D0A2020E948E03CE0101960E9473040E941B
S11309E03D050E940F02CE0140962BE0FC011192BE
S11309F02A95E9F72FEF37E0398B288B22E02A8BF1
S1130A002CEC2B8B2BEB2C8B0E943102CE014B96C2
S1130A100E9469028E8D1F928F9388ED91E09F93BF
S1130A208F930E94BA068F8D1F928F9382EE91E06E
S1130A309F938F930E94BA068D8D1F928F938CEE95
S1130A4091E09F938F930E94BA068C8D8F938B8D28
S1130A508F9387EF91E09F938F930E94BA060FB60E
S1130A60F894DEBF0FBECDBFFFCF88B38F7E88BBA7
S1130A70089588B3806188BB089580EB87BB0E948A
S1130A80390581E58DB908958FB9779BFECF8FB174
S1130A90089590BD89B988E18AB98EE880BD08952A
S1130AA05D9BFECF8CB90895CF93C82F8A3019F47B
S1130AB08DE00E9450058C2F0E94500580E090E04C
S1130AC0CF91089586E091E0909309028093080203
S1130AD0089585B7806885BF80B7877E80BF80B75B
S1130AE0806280BF0895FA01E60FF71F808308959E
S1130AF00F931F93CF93DF938230910510F482E01C
S1130B0090E0E0910402F091050220E030E0A0E0E2
S1130B10B0E0309719F14081518102811381481767
S1130B205907C8F08417950769F4109731F01296A5
S1130B300C93129713961C9327C0009304021093EE
S1130B40050222C02115310519F04217530718F484
S1130B509A01BD01EF01DF01F801DBCF2115310559
S1130B60F9F0281B390B2430310580F48A819B81EC
S1130B706115710521F0FB019383828304C0909376
S1130B80050280930402FE01329644C0FE01E20F86
S1130B90F31F8193919322503109398328833AC0FA
S1130BA02091020230910302232B41F4209102018F
S1130BB0309103013093030220930202209100013B
S1130BC0309101012115310541F42DB73EB7409113
S1130BD0040150910501241B350BE0910202F091B0
S1130BE00302E217F307A0F42E1B3F0B2817390763
S1130BF078F0AC014E5F5F4F2417350748F04E0F75
S1130C005F1F50930302409302028193919302C0A9
S1130C10E0E0F0E0CF01DF91CF911F910F910895B3
S1130C20CF93DF93009709F481C0FC0132971382BC
S1130C301282A0910402B0910502109781F42081E0
S1130C403181820F931F20910202309103022817F1
S1130C50390751F5F0930302E093020267C0ED01F6
S1130C6020E030E0CE17DF0740F44A815B819E012B
S1130C7041155105F1F0EA01F5CFD383C2834081D8
S1130C805181840F951FC817D90759F48881998118
S1130C90840F951F0296918380838A819B8193831D
S1130CA082832115310529F4F0930502E0930402AF
S1130CB03DC0E901FB83EA8349915991C40FD51FD3
S1130CC0EC17FD0761F480819181840F951F0296D2
S1130CD0E90199838883828193819B838A83E0E0FD
S1130CE0F0E012968D919C911397009719F0FD01F5
S1130CF0DC01F7CF8D919C9111979D012E5F3F4FA1
S1130D00820F931F209102023091030228173907A2
S1130D1069F4309729F4109205021092040202C07B
S1130D2013821282B0930302A0930202DF91CF9147
S1130D3008950F931F93CF93DF938C01FC010190CF
S1130D400020E9F7CF01801B910B0E947805EC018C
S1130D50009719F0B8010E94B306CE01DF91CF913C
S1130D601F910F910895FB01DC0101900D92002069
S1130D70E1F70895A0E0B0E0E0ECF6E00C9471092E
S1130D80AE014B5F5F4FFA0161917191AF018091A8
S1130D900802909109020E94D006E2E00C948D09A9
S1130DA0ABE0B0E0E6EDF6E00C9461096C017B0188
S1130DB08A01FC0117821682838181FFCCC1CE0196
S1130DC001963C01F6019381F70193FD859193FF10
S1130DD081917F01882309F4BAC1853239F493FDE6
S1130DE0859193FF81917F01853229F4B60190E0CA
S1130DF00E94C708E7CF912C212C312CFFE1F31579
S1130E00D8F08B3279F038F4803279F08332A1F45F
S1130E10232D20611DC08D3261F0803369F4232DB0
S1130E20216016C0832D8260382EE32DE4603E2EAF
S1130E302AC0F32DF8601DC037FC2DC020ED280F0B
S1130E402A3040F08E32B9F436FC81C1232D20645F
S1130E50322E19C036FE06C08AE0989E200D112459
S1130E60922E11C0EAE02E9E200D1124222EF32D85
S1130E70F0623F2E08C08C3621F4832D8068382E12
S1130E8002C0883641F4F70193FD859193FF819167
S1130E907F018111B3CF982F9F7D9554933028F40F
S1130EA00C5F1F4F9FE399830DC0833631F0833766
S1130EB071F0833509F059C021C0F801808189831C
S1130EC00E5F1F4F88248394912C530113C0280173
S1130ED0F2E04F0E511CF801A080B18036FE03C031
S1130EE0692D70E002C06FEF7FEFC5010E94BC085E
S1130EF04C018201F32DFF773F2E16C0280122E01A
S1130F00420E511CF801A080B18036FE03C0692D49
S1130F1070E002C06FEF7FEFC5010E94B1084C0181
S1130F20F32DF0683F2E820133FC1BC0822D90E02C
S1130F3088169906B0F4B60180E290E00E94C708D2
S1130F402A94F4CFF50137FC859137FE81915F0136
S1130F50B60190E00E94C70821102A9421E0821A69
S1130F6091088114910471F7E8C0843611F0893630
S1130F7041F5F80137FE07C0608171818281938158
S1130F800C5F1F4F08C060817181072E000C880B15
S1130F90990B0E5F1F4FF32DFF763F2E97FF09C06D
S1130FA090958095709561957F4F8F4F9F4FF06816
S1130FB03F2E2AE030E0A3010E940309882E861800
S1130FC045C0853731F4232D2F7EB22E2AE030E040
S1130FD025C0932D997FB92E8F36C1F018F488352A
S1130FE079F0B5C0803719F0883721F0B0C0E92F07
S1130FF0E061BE2EB4FE0DC0FB2DF460BF2E09C00F
S113100034FE0AC0292F2660B22E06C028E030E044
S113101005C020E130E002C020E132E0F801B7FE73
S113102007C060817181828193810C5F1F4F06C06C
S11310306081718180E090E00E5F1F4FA3010E94E8
S11310400309882E8618FB2DFF773F2E36FE0DC030
S1131050232D2E7FA22E891458F434FE0BC032FCAB
S113106009C0832D8E7EA82E05C0B82CA32C03C0E6
S1131070B82C01C0B92CA4FE0FC0FE01E80DF11D6F
S11310808081803321F49A2D997EA92E09C0A2FE75
S113109006C0B394B39404C08A2D867809F0B3943F
S11310A0A3FC11C0A0FE06C0B21488F4280C922C34
S11310B09B180EC0B21460F4B60180E290E00E9466
S11310C0C708B394F7CFB21418F42B1802C0982CA5
S11310D0212CA4FE10C0B60180E390E00E94C70852
S11310E0A2FE17C0A1FC03C088E790E002C088E517
S11310F090E0B6010CC08A2D867859F0A1FE02C09A
S11311008BE201C080E2A7FC8DE2B60190E00E9470
S1131110C708891438F4B60180E390E00E94C70838
S11311209A94F7CF8A94F301E80DF11D8081B601FA
S113113090E00E94C7088110F5CF222009F442CE26
S1131140B60180E290E00E94C7082A94F6CFF60127
S11311508681978102C08FEF9FEF2B96E2E10C947A
S11311607D09FC010590615070400110D8F780950D
S113117090958E0F9F1F0895FC016150704001905F
S11311800110D8F7809590958E0F9F1F08950F93A7
S11311901F93CF93DF93FB01238121FD03C08FEFC6
S11311A09FEF2CC022FF16C04681578124813581D0
S11311B04217530744F4A081B1819D012F5F3F4F33
S11311C0318320838C93268137812F5F3F4F378370
S11311D0268314C08B01EC01FB010084F185E02D12
S11311E00995892BE1F6D80116968D919C91179754
S11311F0019617969C938E931697CE01DF91CF910B
S11312001F910F910895FA01AA27283051F1203136
S113121081F1E8946F936E7F6E5F7F4F8F4F9F4F86
S1131220AF4FB1E03ED0B4E03CD0670F781F891FC8
S11312309A1FA11D680F791F8A1F911DA11D6A0F96
S1131240711D811D911DA11D20D009F468943F9149
S11312502AE0269F11243019305D3193DEF6CF0148
S11312600895462F4770405D4193B3E00FD0C9F70E
S1131270F6CF462F4F70405D4A3318F0495D31FD7B
S11312804052419302D0A9F7EACFB4E0A6959795CE
S1131290879577956795BA95C9F7009761057105A4
S11312A008959B01AC010A2E0694579547953795EE
S11312B02795BA95C9F7620F731F841F951FA01D48
S11312C008952F923F924F925F926F927F928F92E6
S11312D09F92AF92BF92CF92DF92EF92FF920F93C1
S11312E01F93CF93DF93CDB7DEB7CA1BDB0B0FB6CB
S11312F0F894DEBF0FBECDBF09942A883988488888
S11313005F846E847D848C849B84AA84B984C8841D
S1131310DF80EE80FD800C811B81AA81B981CE0F14
S1131320D11D0FB6F894DEBF0FBECDBFED010895F9
S1071330F894FFCF5B
S113133400000C022000000000020000000054051C
S113134400000000B701BE01C501CC01B701BE0114
S1131354C501CC01D3014D656E7520706F696E743F
S113136465723A202564200A00427574746F6E3ADB
S1131374202564200A004A6F79737469636B2064BE
S11313846972656374696F6E3A202564200A004AA1
S11313946F79737469636B20783A2025642025255A
S11313A4200A004A6F79737469636B20793A2025A3
S11313B464202525200A00536C69646572206C65D9
S11313C466743A202564200A00536C6964657220AB
S11313D472696768743A202564200A002020003C5E
S11313E42D00486F6D65004D656E752031004D65A7
S11313F46E752032004D656E752033004D656E7533
S11314042034004261636B0044303A202530327842
S11314140A0044313A20253032780A00446C633A95
S113142420253032780A0069643A20253032780A5B
S10514340000B2
S9030000FC
